:020000040800F2
:1000000000040020E10C0008E10D0008E10D0008EB
:10001000E10D0008E10D0008E10D0008E10D000808
:10002000E10D0008E10D0008E10D0008310E0008A7
:10003000E10D0008E10D0008E10D0008010E0008C7
:10004000E10D0008E10D0008E10D0008E10D0008D8
:10005000E10D0008E10D0008E10D0008E10D0008C8
:10006000E10D0008E10D0008E10D0008A1420008C3
:10007000F14200084143000891430008E1430008B1
:100080003144000881440008E10D0008216F000898
:10009000416F0008616F0008816F0008E10D0008E2
:1000A000E10D0008E10D0008E10D0008E10D000878
:1000B000E10D0008E10D0008E10D0008E10D000868
:1000C000E10D0008E10D0008E10D0008E10D000858
:1000D000E10D0008E10D0008E10D0008F14C0008F9
:1000E000E10D0008E10D0008E10D0008E10D000838
:1000F000E10D0008E10D0008E10D0008E10D000828
:10010000E10D0008E10D0008E10D0008E10D000817
:10011000E10D0008E10D0008E10D0008E10D000807
:10012000D14400082145000871450008C145000878
:1001300011460008E10D0008E10D0008E10D00087E
:10014000E10D0008E10D0008E10D0008E10D0008D7
:10015000E10D0008E10D0008E10D0008E10D0008C7
:10016000E10D0008E10D0008C1500008D150000861
:10017000E10D0008E10D0008E10D0008E10D0008A7
:08018000E10D0008E10D00088B
:0C01880011AE000801E2000821EF0008A1
:1001A00081F0004102E000BF83F0004330B54FEA28
:1001B00041044FEA430594EA050F08BF90EA020F95
:1001C0001FBF54EA000C55EA020C7FEA645C7FEA28
:1001D000655C00F0E2804FEA5454D4EB5555B8BF4B
:1001E0006D420CDD2C4480EA020281EA030382EABC
:1001F000000083EA010180EA020281EA0303362D4E
:1002000088BF30BD11F0004F4FEA01314FF4801C20
:100210004CEA113102D0404261EB410113F0004F32
:100220004FEA03334CEA133302D0524263EB4303E9
:1002300094EA050F00F0A780A4F10104D5F1200E87
:100240000DDB02FA0EFC22FA05F2801841F10001E2
:1002500003FA0EF2801843FA05F359410EE0A5F1B6
:1002600020050EF1200E012A03FA0EFC28BF4CF0E7
:10027000020C43FA05F3C01851EBE37101F000459D
:1002800007D54FF0000EDCF1000C7EEB00006EEBAA
:100290000101B1F5801F1BD3B1F5001F0CD3490834
:1002A0005FEA30004FEA3C0C04F101044FEA44528B
:1002B00012F5800F80F09A80BCF1004F08BF5FEA12
:1002C000500C50F1000041EB045141EA050130BDF2
:1002D0005FEA4C0C404141EB010111F4801FA4F195
:1002E0000104E9D191F0000F04BF01460020B1FAEA
:1002F00081F308BF2033A3F10B03B3F120020CDA22
:100300000C3208DD02F1140CC2F10C0201FA0CF0FF
:1003100021FA02F10CE002F11402D8BFC2F1200C64
:1003200001FA02F120FA0CFCDCBF41EA0C0190401A
:10033000E41AA2BF01EB0451294330BD6FEA040463
:100340001F3C1CDA0C340EDC04F11404C4F120024E
:1003500020FA04F001FA02F340EA030021FA04F360
:1003600045EA030130BDC4F10C04C4F1200220FAB7
:1003700002F001FA04F340EA0300294630BD21FAF5
:1003800004F0294630BD94F0000F83F4801306BFBB
:1003900081F480110134013D4EE77FEA645C18BFAF
:1003A0007FEA655C29D094EA050F08BF90EA020F46
:1003B00005D054EA000C04BF1946104630BD91EA3E
:1003C000030F1EBF0021002030BD5FEA545C05D141
:1003D0004000494128BF41F0004130BD14F5800480
:1003E0003CBF01F5801130BD01F0004545F0FE41F4
:1003F00041F470014FF0000030BD7FEA645C1ABF29
:10040000194610467FEA655C1CBF0B46024650EA5F
:10041000013406BF52EA033591EA030F41F400218B
:1004200030BD00BF90F0000F04BF0021704730B511
:100430004FF4806404F132044FF000054FF00001E6
:1004400050E700BF90F0000F04BF0021704730B5A7
:100450004FF4806404F1320410F0004548BF40427C
:100460004FF000013EE700BF42004FEAE2014FEAD1
:1004700031014FEA02701FBF12F07F4393F07F4FAC
:1004800081F06051704792F0000F14BF93F07F4FDE
:10049000704730B54FF4607401F0004521F0004121
:1004A00020E700BF50EA010208BF704730B54FF0A7
:1004B00000050AE050EA010208BF704730B511F0AC
:1004C000004502D5404261EB41014FF4806404F1E4
:1004D00032045FEA915C3FF4DCAE4FF003025FEA66
:1004E000DC0C18BF03325FEADC0C18BF033202EBEE
:1004F000DC02C2F1200300FA03FC20FA02F001FA48
:1005000003FE40EA0E0021FA02F11444C1E600BFE6
:1005100070B54FF0FF0C4CF4E06C1CEA11541DBF99
:100520001CEA135594EA0C0F95EA0C0F00F0DEF864
:100530002C4481EA030621EA4C5123EA4C5350EA49
:10054000013518BF52EA033541F4801143F480139A
:1005500038D0A0FB02CE4FF00005E1FB02E506F02B
:100560000042E0FB03E54FF00006E1FB03569CF080
:10057000000F18BF4EF0010EA4F1FF04B6F5007F86
:1005800064F5407404D25FEA4E0E6D4146EB0606F8
:1005900042EAC62141EA55514FEAC52040EA5E5081
:1005A0004FEACE2EB4F1FD0C88BFBCF5E06F1ED82B
:1005B000BEF1004F08BF5FEA500E50F1000041EB62
:1005C000045170BD06F0004646EA010140EA02000F
:1005D00081EA0301B4EB5C04C2BFD4EB0C0541EA31
:1005E000045170BD41F480114FF0000E013C00F346
:1005F000AB8014F1360FDEBF002001F0004170BD6A
:10060000C4F10004203C35DA0C341BDC04F1140482
:10061000C4F1200500FA05F320FA04F001FA05F20E
:1006200040EA020001F0004221F0004110EBD370DB
:1006300021FA04F642EB06015EEA430E08BF20EA07
:10064000D37070BDC4F10C04C4F1200500FA04F3AA
:1006500020FA05F001FA04F240EA020001F000413C
:1006600010EBD37041F100015EEA430E08BF20EAAF
:10067000D37070BDC4F1200500FA05F24EEA020EF7
:1006800020FA04F301FA05F243EA020321FA04F026
:1006900001F0004121FA04F220EA020000EBD370DD
:1006A0005EEA430E08BF20EAD37070BD94F0000FDD
:1006B0000FD101F00046400041EB010111F4801F11
:1006C00008BF013CF7D041EA060195F0000F18BFC2
:1006D000704703F00046520043EB030313F4801FFE
:1006E00008BF013DF7D043EA0603704794EA0C0FB8
:1006F0000CEA135518BF95EA0C0F0CD050EA4106CE
:1007000018BF52EA4306D1D181EA030101F000414A
:100710004FF0000070BD50EA410606BF1046194672
:1007200052EA430619D094EA0C0F02D150EA01367E
:1007300013D195EA0C0F05D152EA03361CBF1046BF
:1007400019460AD181EA030101F0004141F0FE415E
:1007500041F470014FF0000070BD41F0FE4141F4E2
:10076000780170BD70B54FF0FF0C4CF4E06C1CEAE2
:1007700011541DBF1CEA135594EA0C0F95EA0C0F97
:1007800000F0A7F8A4EB050481EA030E52EA033552
:100790004FEA013100F088804FEA03334FF0805573
:1007A00045EA131343EA12634FEA022245EA1115A0
:1007B00045EA10654FEA00260EF000419D4208BF51
:1007C000964244F1FD0404F5407402D25B084FEAFE
:1007D0003202B61A65EB03055B084FEA32024FF4AA
:1007E00080104FF4002CB6EB020E75EB030E22BF07
:1007F000B61A754640EA0C005B084FEA3202B6EBC7
:10080000020E75EB030E22BFB61A754640EA5C0075
:100810005B084FEA3202B6EB020E75EB030E22BF05
:10082000B61A754640EA9C005B084FEA3202B6EB06
:10083000020E75EB030E22BFB61A754640EADC00C5
:1008400055EA060E18D04FEA051545EA16754FEA27
:1008500006164FEAC30343EA52734FEAC2025FEA45
:100860001C1CC0D111F4801F0BD141EA00014FF0D4
:1008700000004FF0004CB6E711F4801F04BF0143A5
:100880000020B4F1FD0C88BFBCF5E06F3FF6AFAEC1
:10089000B5EB030C04BFB6EB020C5FEA500C50F151
:1008A000000041EB045170BD0EF0004E4EEA1131D4
:1008B00014EB5C04C2BFD4EB0C0541EA045170BDDB
:1008C00041F480114FF0000E013C90E645EA060E1F
:1008D0008DE60CEA135594EA0C0F08BF95EA0C0F4D
:1008E0003FF43BAF94EA0C0F0AD150EA01347FF495
:1008F00034AF95EA0C0F7FF425AF104619462CE76C
:1009000095EA0C0F06D152EA03353FF4FDAE1046CE
:10091000194622E750EA410618BF52EA43067FF41F
:10092000C5AE50EA41047FF40DAF52EA43057FF4AF
:10093000EBAE12E700000000000000000000000025
:100940004FEA410212F5001215D211D56FF47873F7
:10095000B3EB625212D94FEAC12343F0004343EA9A
:10096000505311F0004F23FA02F018BF4042704775
:100970004FF00000704750EA013005D111F00040FF
:1009800008BF6FF0004070474FF00000704700BF95
:100990004FEA4102B2F1E04324BFB3F5001CDCF1A1
:1009A000FE5C0DD901F0004C4FEAC0024CEA5070D9
:1009B000B2F1004F40EB830008BF20F00100704708
:1009C00011F0804F21D113F13872BCBF01F000400B
:1009D000704741F480114FEA5252C2F11802C2F13D
:1009E000200C10FA0CF320FA02F018BF40F00100BE
:1009F0004FEAC1234FEAD32303FA0CFC40EA0C0070
:100A000023FA02F34FEA4303CCE77FEA625307D1AC
:100A100050EA01331EBF4FF0FE4040F440007047E3
:100A200001F0004040F0FE4040F40000704700BF7D
:100A3000844641EA000313F003036DD1403A41D3E9
:100A400051F8043B40F8043B51F8043B40F8043BA8
:100A500051F8043B40F8043B51F8043B40F8043B98
:100A600051F8043B40F8043B51F8043B40F8043B88
:100A700051F8043B40F8043B51F8043B40F8043B78
:100A800051F8043B40F8043B51F8043B40F8043B68
:100A900051F8043B40F8043B51F8043B40F8043B58
:100AA00051F8043B40F8043B51F8043B40F8043B48
:100AB00051F8043B40F8043B51F8043B40F8043B38
:100AC000403ABDD2303211D351F8043B40F8043BD8
:100AD00051F8043B40F8043B51F8043B40F8043B18
:100AE00051F8043B40F8043B103AEDD20C3205D3E8
:100AF00051F8043B40F8043B043AF9D2043208D0E0
:100B0000D2071CBF11F8013B00F8013B01D30B8851
:100B100003806046704700BF082A13D38B078DD02F
:100B200010F003038AD0C3F10403D21ADB071CBF01
:100B300011F8013B00F8013B80D331F8023B20F86B
:100B4000023B7BE7043AD9D3013A11F8013B00F8A4
:100B5000013BF9D20B7803704B7843708B7883702C
:100B60006046704700000000000000000000000028
:100B70004FF0FF3C06E000BF4FF0010C02E000BF69
:100B80004FF0010C4DF804CD4FEA410C7FEA6C5C4C
:100B90004FEA430C18BF7FEA6C5C1BD001B050EAEF
:100BA000410C0CBF52EA430C91EA030F02BF90EADA
:100BB000020F0020704710F1000F91EA030F58BF99
:100BC000994208BF90422CBFD8176FEAE37040F0FB
:100BD000010070474FEA410C7FEA6C5C02D150EA99
:100BE000013C07D14FEA430C7FEA6C5CD6D152EA54
:100BF000033CD3D05DF8040B704700BF8446104619
:100C000062468C461946634600E000BF01B5FFF717
:100C1000B7FF002848BF10F1000F01BD4DF808EDE7
:100C2000FFF7F4FF0CBF012000205DF808FB00BFB8
:100C30004DF808EDFFF7EAFF34BF012000205DF812
:100C400008FB00BF4DF808EDFFF7E0FF94BF01205F
:100C500000205DF808FB00BF4DF808EDFFF7CEFF60
:100C600094BF012000205DF808FB00BF4DF808ED9F
:100C7000FFF7C4FF34BF012000205DF808FB00BF70
:100C80004A0011D212F5001211D20DD56FF478730B
:100C9000B3EB62520ED44FEAC12343F0004343EA60
:100CA000505323FA02F070474FF00000704750EAAB
:100CB000013002D14FF0FF3070474FF00000704715
:100CC000704700BFAFF30080AFF30080AFF3008048
:100CD000FEE700BFAFF30080AFF30080AFF300800A
:100CE00072B62C4C84F309882B4B4FF040421A60AB
:100CF0002A4A2A4B1B6843F4700313600024E1EE78
:100D0000104A274B1C60062484F31488BFF36F8FAE
:100D1000244C254D04E023461C1D4FF055321A602B
:100D2000AC42F8D3214C1B4D04E023461C1D4FF070
:100D300055321A60AC42F8D306F0BAFA1C4D1D4C7D
:100D400005E023461C1D2A46151D12681A601A4B21
:100D50009C42F6D3194C1A4D03E023461C1D002279
:100D60001A60AC42F9D3FFF7ABFF164C02E02368E0
:100D700098470434144B9C42F9D30DF069FF134C8F
:100D800002E0236898470434114B9C42F9D3FFF7E3
:100D90009FFF00BF0008002034EF00E088ED00E076
:100DA0003CEF00E0000000200004002000040020D0
:100DB000F032010800080020BC100020C010002004
:100DC000B02900208801000894010008940100085F
:100DD00094010008AFF30080AFF30080AFF3008010
:100DE000FEE700BFAFF30080AFF30080AFF30080F9
:100DF00072B6FEE7AFF30080AFF30080AFF3008080
:100E000008B500F05DFA202383F3118800F028FA7A
:100E100000F06EF900F03CFA002383F3118800F033
:100E20006FFA00F035F808BDAFF30080AFF3008033
:100E300082B00A4A094B5B6823F001035360EFF369
:100E400009830193019B68330193019B83F3098814
:100E5000002383F3118802B0704700BF30EF00E039
:100E600008B5094B00229A60074B084ADA60072050
:100E7000102100F0C5F80A20202100F0C1F80B2055
:100E8000802100F0BDF808BD00ED00E00003FA0588
:100E900082B0202383F31188204B5B6803F4006346
:100EA000002B35D0F1EE10FAEFF309830193019B8B
:100EB000683B0193019B4FF08072DA61019B83F3E1
:100EC0000988174B9B6993F82330002B0BD0144BE8
:100ED0001B689A68124B9B699B689A428CBF0123DE
:100EE0000023DBB20AE00E4B1B689A680C4B9B692F
:100EF0009B689A422CBF01230023DBB2002B03D056
:100F0000019B084A9A6106E0019B074A9A6102E048
:100F1000002383F3118802B0704700BF00ED00E0AA
:100F200098160020310F00083C0F0008AFF3008036
:100F300000F066F900F024FD00F07AF900DF00BF50
:100F400003460A462DE9F04F2DED108AC2F80CD069
:100F5000D3F80CD0BDEC108ABDE8F08FAFF3008061
:100F600008B500F065F9002383F311882846A047EF
:100F700000F03EFE08BD00BFAFF30080AFF300807D
:100F800010B485B001900091019B03F00303DB00D6
:100F90000393194C019B9B081749019A9208C03290
:100FA00051F822200399FF2000FA01F1C9431140B2
:100FB000039A009800FA02F20A43C03344F823204F
:100FC0000D49019B5B09019A02F01F02012000FA02
:100FD00002F2603341F823200749019B5B09019A23
:100FE00002F01F02012000FA02F241F8232005B0AE
:100FF0005DF8044B704700BF00E100E0AFF30080F4
:1010000010B485B001900091019B03F00303DB0055
:1010100003930D4C019B9B080B49019A92080632E1
:1010200051F822200399FF2000FA01F1C943114031
:10103000039A009800FA02F20A43063344F8232088
:1010400005B05DF8044B704700ED00E0AFF30080A1
:1010500082B00190024B9B69024A9A61FEE700BF91
:1010600098160020101B0108AFF30080AFF300803A
:1010700000B583B0FFF7F4FE00F0AAFA00F0E0F943
:1010800001F02EFC01F084FC00F08AF912484021A6
:1010900000F096FC0246114B9A61104B9B690122AD
:1010A00083F820200D4B9B690D4ADA6100F090F81F
:1010B000002383F3118862B6084B9B69094A9A6141
:1010C0000023009308484FF4B4710122074B00F04D
:1010D0001FFD03B05DF804FB2812002098160020C5
:1010E00000040020A0270108C010002051100008B3
:1010F00000B583B000F024F9244B9B6993F82330AA
:10110000002B07D0214B9B6993F82320013AD2B2E0
:1011100083F823201D4B9B695A6A01325A621C4B8B
:10112000DB6801331A4AD360194B1B68184A934293
:1011300029D0174B1B689A68013A9A601CE0019B02
:10114000DB680093019B0022DA60019B1B68104A58
:101150005A60019B1B680E4A136000F099F8002347
:1011600083F31188019B1A69009B1046984720233E
:1011700083F3118800F074F8054B1B680193019B01
:101180009B68002BDBD003B05DF804FB98160020B1
:1011900088160020AFF30080AFF30080AFF300802B
:1011A00008B5064B1B68002B03D1054B1B68002BB1
:1011B00002D0044800F034F908BD00BF74120020CA
:1011C00078120020201B0108AFF30080AFF30080ED
:1011D00008B5064B1B68002B03D1054B1B68002B81
:1011E00002D0044800F01CF908BD00BF74120020B2
:1011F00078120020301B0108AFF30080AFF30080AD
:1012000008B5074B1B68002B03D1064B1B68002B4E
:1012100002D0054800F004F9024B01221A6008BD13
:101220007412002078120020381B0108AFF30080F0
:1012300008B5074B1B68002B03D1064B1B68002B1E
:1012400002DC054800F0ECF8024B00221A6008BDF1
:101250007412002078120020401B0108AFF30080B8
:1012600008B5074B1B68002B03DD064B1B68002BE2
:1012700002D0054800F0D4F8024B01221A6008BDE4
:101280007412002078120020481B0108AFF3008080
:1012900008B5074B1B68002B03DD064B1B68002BB2
:1012A00002DC054800F0BCF8024B00221A6008BDC1
:1012B0007412002078120020501B0108AFF3008048
:1012C00008B5202383F31188094B1B68002B03DB2F
:1012D000084B1B68002B02D0074800F0A1F8044B14
:1012E0001B680133024A1360002383F3118808BD91
:1012F0007412002078120020581B0108AFF3008000
:1013000008B5202383F31188094B1B68002B03DDEC
:10131000084B1B68002B02D0074800F081F8044BF3
:101320001B68013B024A1360002383F3118808BD48
:101330007412002078120020601B0108AFF30080B7
:1013400008B5064B1B68002B03DB054B1B68002B05
:1013500002DC044800F064F808BD00BF74120020ED
:1013600078120020681B0108AFF30080AFF3008003
:1013700008B5064B1B68002B03D1054B1B68002BDF
:1013800002DC044800F04CF808BD00BF74120020D5
:1013900078120020701B0108AFF30080AFF30080CB
:1013A000034B40221A60024B024A5A60704700BF4A
:1013B0007C12002084120020AFF30080AFF3008085
:1013C00082B00190114B5B68114AD2681A600F4BD2
:1013D0005B68104A92695A600C4B5B68019A926A8A
:1013E0009A600A4B5B68019A92F820201A73074BA7
:1013F0005B681033054A5360044B5B68064A9342AE
:1014000002D3024B054A5A6002B070477C1200209A
:1014100088160020981600208416002084120020D0
:1014200000B583B00190044A019B1360FFF7E0FC14
:1014300003B05DF804FB00BF84160020AFF300800A
:10144000074B074A5A60064B5B68054A1360044B1A
:101450004FF0FF329A60024B0022DA60704700BF03
:1014600088160020AFF30080AFF30080AFF3008058
:1014700000B587B00390029101920093FFF760FFDF
:10148000039B002B05D0019B002B02D0029B002B5D
:1014900002D11D48FFF7C4FF039B009A1A61039B0A
:1014A000019ADA60194B1B68059307E0059B9B685E
:1014B000029AD31A0293059B1B680593059B9A68B1
:1014C000029B9A42F2D3039B059A1A60039B1B6806
:1014D0005A68039B5A60039B5B68059A03995160A5
:1014E000059A52681A60039B029A9A60059B074A04
:1014F000934205D0059B9A68029BD21A059B9A607D
:1015000007B05DF804FB00BF801B010888160020AF
:1015100000B583B00190FFF713FF019B002B02D1B0
:101520001348FFF77DFF019BDB68002B02D11148B8
:10153000FFF776FF019B1B680F4A934208D0019B7F
:101540001B68019A12689168019A92680A449A602D
:10155000019B5B68019A12681A60019B1B68019AE3
:1015600052685A60019B0022DA6003B05DF804FB08
:10157000901B0108A01B010888160020AFF3008013
:1015800084B00190019B1B680393039B1A68019B25
:101590001A60019B1B68019A5A60039B184604B0AD
:1015A000704700BFAFF30080AFF30080AFF300805F
:1015B00082B00190019B5B68019A12681A60019BDE
:1015C0001B68019A52685A60019B184602B0704726
:1015D000084B084A5A60074B5B68064A1360054B84
:1015E00000229A60034B034A5A61024B5B69014A2D
:1015F0001361704798160020AFF30080AFF30080AE
:1016000000B585B00190FFF79BFE019B93F8203059
:10161000002B04D0019B93F820300E2B02D11348ED
:10162000FFF7FEFE019B002283F82020104B03935E
:10163000039B1B680393039B9A68019B9B689A42D8
:10164000F6D2019B039A1A60039B5A68019B5A6069
:10165000019B5B68039A01995160039A52681A6072
:10166000019B184605B05DF804FB00BFC01B0108D4
:1016700098160020AFF30080AFF30080AFF3008036
:1016800000B585B003468DF80730FFF771FE164BA5
:101690009B690393039B9DF8072083F82020039BFD
:1016A000142283F823201048FFF76AFF02460E4BEE
:1016B0009A610D4B9B69012283F820200398FFF764
:1016C0007FFE6B46A3F16402039BDB699A4202D260
:1016D0000648FFF7A5FE044B9B6918460399FFF7E0
:1016E0002FFC05B05DF804FB98160020D41B010800
:1016F00000B585B00190019B0393202383F31188EB
:10170000FFF7AEFD039B93F820300D2B2CD801A2E0
:1017100052F823F04D1700086917000869170008F0
:1017200059170008691700086317000869170008AF
:101730006917000869170008691700086917000889
:10174000691700086917000863170008FFF7A0FD74
:10175000002383F3118813E0039B9B6A9A6801328C
:101760009A600398FFF724FF039B4FF0FF329A62C1
:101770000398FFF745FFFFF78BFD002383F31188E4
:1017800005B05DF804FB00BFAFF30080AFF300804D
:1017900000B589B0034600918DF80730FFF7E8FDEA
:1017A000009BB3F1FF3F15D0104B9B6903AA104675
:1017B00000990F4AFFF75CFE9DF807301846FFF7C7
:1017C0005FFF069B002B04D003AB1846FFF7A0FE7B
:1017D00005E004E09DF807301846FFF751FF034B82
:1017E0009B699B6A184609B05DF804FB98160020B7
:1017F000F1160008AFF30080AFF30080AFF3008074
:1018000000B585B001900091FFF7B2FD019B009AF1
:101810009A62019B9A68154B9B699B689A4203D810
:101820000198FFF7EDFE1DE0104B9B691846FFF78E
:10183000E7FE03900D4A019B9361019B012283F80F
:1018400020200398FFF7BCFD6B46A3F16402039BC5
:10185000DB699A4202D20648FFF7E2FD019803993C
:10186000FFF76EFB05B05DF804FB00BF9816002083
:10187000D41B0108AFF30080AFF30080AFF300800A
:1018800000B583B0154B9B6901931448FFF778FEB0
:101890000246124B9A61114B9B69012283F820206A
:1018A000019B142283F823200198FFF7A9FE0198D9
:1018B000FFF786FD6B46A3F16402019BDB699A4248
:1018C00002D20748FFF7ACFD044B9B69184601990B
:1018D000FFF736FB03B05DF804FB00BF981600204D
:1018E000D41B0108AFF30080AFF30080AFF300809A
:1018F00000B583B0204B9B6900931F48FFF740FE63
:1019000002461D4B9A611C4B9B69012283F82020E3
:10191000009B002283F82020174B0193019B1B683A
:101920000193019B9A68009B9B689A42F6D8009BA2
:10193000019A1A60019B5A68009B5A60009B5B6881
:10194000019A00995160019A52681A600098FFF755
:1019500037FD6B46A3F16402009BDB699A4202D219
:101960000648FFF75DFD044B9B6918460099FFF799
:10197000E7FA03B05DF804FB98160020D41B0108B9
:1019800008B5064B9B6993F82330002B02D1FFF773
:1019900077FF01E0FFF7ACFF08BD00BF98160020FD
:1019A00084B00190019B1B680393039B1A68019B01
:1019B0001A60039B184604B0704700BFAFF3008065
:1019C00082B001900091019B009A9A60019B0222D3
:1019D00083F82020019B002283F82120019B142200
:1019E00083F82320019B009A5A64019B00221A6409
:1019F000019B0022DA63019B00225A62019B0122B3
:101A000083F82220019B00229A61019B124A1A61ED
:101A1000114B5A69019B5A61019B5B690E49019AFE
:101A20004A610D4A52691A61019B03F12C02019B24
:101A3000DA62019B03F13002019B5A63019B5A6BEE
:101A4000019B1A63019B03F14C02019BDA61019B2C
:101A5000184602B0704700BF98160020AFF3008010
:101A600084B00390029113468DF8073005E0039B84
:101A70005A1C03929DF807201A70039A029B9A42FF
:101A8000F5D304B0704700BFAFF30080AFF3008020
:101A900000B587B00390029101920093039B0593D8
:101AA000FFF74EFC039B002B09D0029BB3F5AC7FE4
:101AB00005D3019B7F2B02D8009B002B02D10F483E
:101AC000FFF7AEFC029B643B039A1A44059BDA6065
:101AD000059BDB68009A1A64059BDB68089A5A64C8
:101AE000059BDB68064A1A6605980199FFF768FFAF
:101AF0000346184607B05DF804FB00BFF01B010861
:101B0000610F0008AFF30080AFF30080AFF30080F7
:101B100000B589B00590049103920293059B4C3364
:101B200005981946FF22FFF79BFF059B03F14C0127
:101B3000059A049B1344084619465522FFF790FF67
:101B4000202383F31188FFF75BFB0A9B0093059822
:101B50000499039A029BFFF79BFF079007980021C7
:101B6000FFF74EFEFFF764FB002383F31188079B0A
:101B7000184609B05DF804FBAFF30080AFF30080B6
:101B800000B583B00190019B002B02D10948FFF7FB
:101B900047FC202383F31188FFF732FB06200199CD
:101BA000FFF7F6FDFFF744FB002383F3118803B032
:101BB0005DF804FB301C0108AFF30080AFF3008038
:101BC00008B5202383F31188FFF71AFB074B1B6826
:101BD0009A68064B9B699B689A4201D3FFF750FEB7
:101BE000FFF726FB002383F3118808BD9816002019
:101BF00000B583B00190202383F31188FFF700FB29
:101C0000019800F005F803B05DF804FBAFF3008025
:101C100000B585B00190184B9B690393039B019A13
:101C20009A6208E0039B2C331846FFF7B9FE03467F
:101C30001846FFF7E5FC039BDA6A039B2C339A42B4
:101C4000F0D1039B93F8213003F00303002B09D15B
:101C5000039B5B69039A12691A61039B1B69039AD0
:101C600052695A610E20FFF70BFD0448FFF7D8FBBD
:101C700005B05DF804FB00BF98160020401C010869
:101C800000B585B00190202383F31188FFF7B8FADF
:101C9000019B93F82230002B02D12548FFF7C0FBAF
:101CA000019B93F82230013BDAB2019B83F822209A
:101CB000019B93F822308DF80F30FFF7B9FA00231B
:101CC00083F311889DF80F30002B2DD1019B93F8E1
:101CD00020300E2B28D1019B93F8213003F0030311
:101CE000012B02D0022B0ED01EE0019B5B69019AF2
:101CF00012691A61019B1B69019A52695A61019824
:101D000000F0D6FE10E0019B5B69019A12691A612E
:101D1000019B1B69019A52695A61019B9B6C184691
:101D2000019900F0DDFF00BF05B05DF804FB00BFC6
:101D3000A41C0108AFF30080AFF30080AFF3008074
:101D400000B589B005900491039202930598049917
:101D500000F036FE0790079B002B01D100232DE0F9
:101D6000079B4C3307981946FF22FFF779FE079B24
:101D700003F14C01079A049B134408461946552267
:101D8000FFF76EFE202383F31188FFF739FA0A9BD1
:101D9000009307980499039A029BFFF779FE069037
:101DA000069B012283F8212006980021FFF728FDD9
:101DB000FFF73EFA002383F31188069B184609B00B
:101DC0005DF804FBAFF30080AFF30080AFF3008059
:101DD00084B001900091009B0393039B1B680393C5
:101DE000039A009B9A4205D0039B9A68019B9B68CB
:101DF0009A42F2D2019B039A1A60039B5A68019B94
:101E00005A60019B5B68039A01995160039A52687A
:101E10001A6004B0704700BFAFF30080AFF30080DA
:101E200084B00190019B1B680393039B1A68019B7C
:101E30001A60019B1B68019A5A60039B184604B004
:101E4000704700BFAFF30080AFF30080AFF30080B6
:101E500082B00190019B5B68019A12681A60019B35
:101E60001B68019A52685A60019B184602B070477D
:101E700000B583B00190019B002B02D10748FFF70A
:101E8000CFFA019A019B5A60019B5A68019B1A6024
:101E9000019B00229A6003B05DF804FBE01C01087E
:101EA00000B583B00190202383F31188FFF7A8F9D0
:101EB000019800F00DF8FFF7BBF9002383F31188B8
:101EC00003B05DF804FB00BFAFF30080AFF3008008
:101ED00000B585B001903C4B9B690293FFF748FA2F
:101EE000019B002B02D13948FFF79AFA019B9B68AE
:101EF000002B5BD0019B9B68039334E0029B9A68A4
:101F0000039B9A60039B93F82030042B04D0052B8D
:101F100011D0002B1AD02CE00398FFF799FF02464E
:101F2000039B9B6A10461946FFF752FF039B9B6A6F
:101F30009B68039317E00398FFF78AFF0246039B11
:101F40009B6A10461946FFF743FF0BE0039B0122F3
:101F500083F820200398FFF77BFF03461846FFF71E
:101F60004FFB00BF05E0039B9A68029B9B689A4267
:101F7000C4D3019B02981946FFF72AFF029B019ADE
:101F80009A620420FFF77CFB019B9A68029B9A42AD
:101F900002D00F48FFF744FA029B1A6C019B9A4249
:101FA00003D00C48FFF73CFA0AE009E0019B029AD3
:101FB0009A60029B1A6C019BDA60029B019A1A6478
:101FC00005B05DF804FB00BF98160020F01C010866
:101FD000001D0108141D0108AFF30080AFF300805D
:101FE00000B587B0314B9B690393202383F311889D
:101FF000FFF706F9039B1B6C002B02D12C48FFF75F
:102000000FFA039B1B6C9A68039B9A4202D02948E3
:10201000FFF706FA039B1B6C0293029BDA68039B93
:102020001A64029B1A68029B9A4232D0039B5B6C33
:102030000493039B1B6C059311E0059B1A68059B99
:102040009A4209D0059B1B689A68049B9A4203D95F
:10205000059B1B689B680493059BDB680593059BA8
:10206000002BEAD1039B049A9A60029B1846FFF763
:10207000D7FE0190029B019A9A60019B1A6C029B09
:10208000DA60019B029A1A6401980021FFF7B8FBFD
:1020900002E0029B00229A60FFF7CAF8002383F354
:1020A0001188029B184607B05DF804FB98160020C3
:1020B0003C1D0108501D0108AFF30080AFF3008004
:1020C00000B587B02D4B9B690393FFF751F9039B34
:1020D0001B6C002B02D12A48FFF7A2F9039B1B6C53
:1020E0009A68039B9A4202D02648FFF799F9039B0E
:1020F0001B6C0293029BDA68039B1A64029B1A68AA
:10210000029B9A4231D0039B5B6C0493039B1B6C34
:10211000059311E0059B1A68059B9A4209D0059B1F
:102120001B689A68049B9A4203D9059B1B689B68AD
:102130000493059BDB680593059B002BEAD1039B69
:10214000049A9A60029B1846FFF76AFE0190029B70
:10215000019A9A60019B1A6C029BDA60019B029AB9
:102160001A640198FFF74CFA02E0029B00229A6081
:10217000029B184607B05DF804FB00BF98160020CC
:10218000641D0108781D0108AFF30080AFF30080E3
:1021900000B585B001900091FFF7D2F8019B002BAC
:1021A00002D10F48FFF73CF9019B1B68039310E035
:1021B000039BDA68009B1A43039BDA60039B5A680F
:1021C000039B9B681046194600F012F8039B1B689E
:1021D0000393039A019B9A42EAD105B05DF804FB90
:1021E000BC1D0108AFF30080AFF30080AFF30080A7
:1021F00000B583B001900091FFF7A2F8019B002B7E
:1022000002D11648FFF70CF9019BDA6B009B1A43C9
:10221000019BDA63019B93F82030082B06D1019BC8
:10222000DA6B019B9B6A1340002B0DD1019B93F845
:102230002030092B0ED1019BDA6B019B9B6A1A405F
:10224000019B9B6A9A4205D10198FFF7D9F9024692
:102250000023936203B05DF804FB00BFE41D010896
:1022600000B585B001900091204B9B69029320231B
:1022700083F31188FEF7C4FF029BDA6B019B1340C6
:102280000393039B002B1FD1009B002B06D1FEF76D
:10229000CFFF002383F31188002322E0029B019AE1
:1022A0009A6208200099FFF773FA0346002B06DABA
:1022B000FEF7BEFF002383F31188002311E0029B89
:1022C000DA6B019B13400393029BDA6B039BDB43A6
:1022D0001A40029BDA63FEF7ABFF002383F31188F9
:1022E000039B184605B05DF804FB00BF981600205C
:1022F00082B001900091019B009A1A60009B5A687D
:10230000019B5A60019B5B68009A01995160009A99
:1023100052681A6002B07047AFF30080AFF30080DC
:1023200084B00190019B1B680393039B1A68019B77
:102330001A60019B1B68019A5A60039B184604B0FF
:10234000704700BFAFF30080AFF30080AFF30080B1
:1023500000B583B001900091009B002B02D14FF09B
:10236000FF330FE0094B9B69019A9A62074B9A6908
:10237000019B10461946FFF7BBFF0D200099FFF7A0
:1023800007FA0346184603B05DF804FB98160020D0
:1023900084B00390029101920093039A039B5A60C8
:1023A000039B5A68039B1A60039B00229A60039B5D
:1023B000029A5A61039B5A69039B9A61039B9A692B
:1023C000039BDA60029A019B1A44039B1A61039BE8
:1023D000009ADA61039B049A1A6204B0704700BF46
:1023E00000B583B00190FEF7ABFF019BDA68019B5B
:1023F0005A61019B5A69019B9A61019B00229A6074
:102400000BE0019B1846FFF78BFF03461846FFF7CA
:10241000F7F802466FF001039362019B1A68019B73
:102420009A42EED103B05DF804FB00BFAFF3008029
:1024300000B583B001900B468DF80330FEF780FFA6
:10244000019B5A69019B9B699A4205D1019B9B683C
:10245000002B01D0012300E0002303F00103DBB2D5
:10246000002B02D06FF0030327E0019B9B685A1CEE
:10247000019B9A60019B5B69591C019A51619DF80F
:1024800003201A70019B5A69019B1B699A4203D36E
:10249000019BDA68019B5A61019B1A68019B9A4271
:1024A0000AD0019B1846FFF73BFF03461846FFF78B
:1024B000A7F80246002393620023184603B05DF894
:1024C00004FB00BFAFF30080AFF30080AFF30080E8
:1024D00000B585B001900091202383F31188FEF7A9
:1024E0008FFE019BDB69002B03D0019BDB69019808
:1024F00098470EE001980099FFF72AFF0390039B8D
:10250000002B06DAFEF794FE002383F31188039B69
:1025100021E0019B9B68002BECD0019B9B685A1E1D
:10252000019B9A60019B9B69591C019A91611B78E0
:102530008DF80B30019B9A69019B1B699A4203D36A
:10254000019BDA68019B9A61FEF772FE002383F318
:1025500011889DF80B30184605B05DF804FB00BFEC
:1025600000B587B00390029101920093039BDB6951
:10257000049300230593019B002B02D12948FEF709
:102580004FFF202383F31188FEF73AFE049B002BB4
:1025900002D0049B039898470DE003980099FFF739
:1025A000D7FE0346002B06D0FEF742FE002383F33E
:1025B0001188059B32E0039B9B68002BEDD0039BA9
:1025C0009B685A1E039B9A60029B5A1C0292039AB4
:1025D0009269501C0399886112781A70039B9A695A
:1025E000039B1B699A4203D3039BDA68039B9A619E
:1025F000FEF71EFE002383F31188059B013305932C
:10260000019B013B0193019B002B01D1059B05E040
:10261000202383F31188FEF7F3FDB7E7184607B0D0
:102620005DF804FB201E0108AFF30080AFF30080CB
:1026300084B00390029101920093039A039B5A6025
:10264000039B5A68039B1A60039B019A9A60039B41
:10265000029A5A61039B5A69039B9A61039B9A6988
:10266000039BDA60029A019B1A44039B1A61039B45
:10267000009ADA61039B049A1A6204B0704700BFA3
:1026800000B583B00190FEF75BFE019BDA68019B09
:102690005A61019B5A69019B9A61019B1B691A4609
:1026A000019BDB68D31A1A46019B9A600BE0019BE1
:1026B0001846FFF735FE03461846FEF7A1FF02460F
:1026C0006FF001039362019B1A68019B9A42EED15D
:1026D00003B05DF804FB00BFAFF30080AFF30080F0
:1026E00000B587B003900B4601928DF80B30202384
:1026F00083F31188FEF784FD0EE003980199FFF73C
:1027000027FE0590059B002B06DAFEF791FD0023BE
:1027100083F31188059B28E0039B9B68002BECD07A
:10272000039B9B685A1E039B9A60039B5B69591C21
:10273000039A51619DF80B201A70039B5A69039B01
:102740001B699A4203D3039BDA68039B5A61039B7C
:10275000DB69002B03D0039BDB6903989847FEF7E6
:1027600067FD002383F311880023184607B05DF846
:1027700004FB00BFAFF30080AFF30080AFF3008035
:1027800000B585B00190FEF7DBFD019B5A69019B06
:102790009B699A4205D1019B9B68002B01D00123C4
:1027A00000E0002303F00103DBB2002B02D06FF046
:1027B000020328E0019B9B685A1C019B9A60019BC5
:1027C0009B69591C019A91611B788DF80F30019B10
:1027D0009A69019B1B699A4203D3019BDA68019BAA
:1027E0009A61019B1A68019B9A420AD0019B184684
:1027F000FFF796FD03461846FEF702FF0246002348
:1028000093629DF80F30184605B05DF804FB00BFD9
:1028100000B587B00390029101920093039BDB699E
:10282000049300230593019B002B02D12948FEF756
:10283000F7FD202383F31188FEF7E2FC0DE00398F7
:102840000099FFF785FD0346002B06D0FEF7F0FC4C
:10285000002383F31188059B38E0039B9B68002BC2
:10286000EDD0039B9B685A1E039B9A60039B5B6998
:10287000591C039A5161029A511C029112781A70E4
:10288000039B5A69039B1B699A4203D3039BDA6833
:10289000039B5A61049B002B02D0049B039898472A
:1028A000FEF7C6FC002383F31188059B01330593D3
:1028B000019B013B0193019B002B01D1059B05E08E
:1028C000202383F31188FEF79BFCB7E7184607B077
:1028D0005DF804FB341E0108AFF30080AFF3008005
:1028E000064B073323F007031A46054B1A60054BC6
:1028F00023F007031A46044B1A607047B0290020E2
:10290000B416002000A00020B8160020AFF300800D
:1029100000B585B00190202383F31188FEF770FC89
:10292000019800F00DF80390FEF782FC002383F37A
:102930001188039B184605B05DF804FBAFF30080D7
:1029400000B585B00190FEF7FBFC019B073323F037
:10295000070301930C4B1B681A460C4B1B68D31AD8
:102960001A46019B9A4201D2002309E0074B1B68DB
:102970000393064B1A68019B1344044A1360039B9C
:10298000184605B05DF804FBB8160020B416002008
:1029900008B5064B064A1A60044B00229A60034BA6
:1029A0000022DA600348FFF763FA08BDC016002072
:1029B00011290008D0160020AFF30080AFF300808B
:1029C00000B587B001900091019B002B01D1344BE1
:1029D0000193009B073323F007030093019B083307
:1029E0000593019B10331846FFF75AFA33E0059B15
:1029F0001B680493049B5A68009B9A4229D3049B4A
:102A00005A68009B08339A4204D2049B1A68059BBB
:102A10001A6016E0009B0833049A13440393049B46
:102A20001A68039B1A60049B5A68009BD31AA3F18F
:102A30000802039B5A60059B039A1A60049B009A44
:102A40005A60049B019A1A60FFF7CAFA049B083384
:102A500021E0049B0593059B1B68002BC7D1FFF762
:102A6000BFFA019B1B68002B14D0019B1B68009AC6
:102A70000832104698470490049B002B0AD0049B10
:102A8000019A1A60049B009A5A60049B08330493CD
:102A9000049B00E00023184607B05DF804FB00BF6C
:102AA000C0160020AFF30080AFF30080AFF30080CA
:102AB00000B587B00190019B002B02D13948FEF789
:102AC000AFFC019B083B0493049B1B680393039B8F
:102AD00008330593039B10331846FFF7E1F9049A76
:102AE000059B9A420AD3059B5B680833059A1A44F2
:102AF000049B9A4202D92C48FEF792FC039B03F1F7
:102B00000802059B9A4203D0049A059B9A423ED93B
:102B1000059B1B68002B04D0059B1A68049B9A42F6
:102B200035D9059B1A68049B1A60059B049A1A60A4
:102B3000049B5B680833049A1A44049B1B689A42FE
:102B40000ED1049B5A68049B1B685B68134403F115
:102B50000802049B5A60049B1B681A68049B1A6055
:102B6000059B5B680833059A1A44049B9A420DD171
:102B7000059B5A68049B5B68134403F10802059B9C
:102B80005A60049B1A68059B1A6004E003E0059BE9
:102B90001B680593A3E7FFF723FA00BF07B05DF8B2
:102BA00004FB00BF601E0108701E0108AFF3008027
:102BB00000B585B0039002910192039B002B02D0D7
:102BC000029B032B02D80748FEF72AFC039B002236
:102BD0001A60039B029A5A60039B019A9A6005B09F
:102BE0005DF804FB901E0108AFF30080AFF3008096
:102BF00000B585B0039002910192039B002B02D097
:102C0000019B002B02D10B48FEF70AFC0BE0039856
:102C1000029900F065F8039B5B68029A13440293E3
:102C2000019B013B0193019B002BF0D105B05DF8A6
:102C300004FB00BFA01E0108AFF30080AFF30080CB
:102C400000B585B00190FEF77BFB019B002B02D104
:102C50000F48FEF7E5FB019B1B680393039B002BCA
:102C600005D0019B1B681A68019B1A600AE0019B52
:102C70009B68002B06D0019B9B68019A5268104606
:102C800098470390039B184605B05DF804FB00BF0E
:102C9000B41E0108AFF30080AFF30080AFF30080F3
:102CA00000B585B001900091009B0393FEF748FBAF
:102CB000019B002B02D0009B002B02D10648FEF79F
:102CC000AFFB019B1A68039B1A60019B039A1A6071
:102CD00005B05DF804FB00BFC81E0108AFF300801B
:102CE00000B583B001900091202383F31188FEF793
:102CF00087FA01980099FFF7D3FFFEF799FA0023AE
:102D000083F3118803B05DF804FB00BFAFF30080CC
:102D100008B501F0EDFC084801F0C2FD00F0C8F86C
:102D200000F0E6FC00F0ECFE00F00AF800F0E0FA3B
:102D300004F0C6FA08BD00BF00290108AFF3008007
:102D4000704700BFAFF30080AFF30080AFF30080A7
:102D500000B585B0039002910192039B3033184671
:102D60000299019A4FF0FF33FFF752FD03461846D0
:102D700005B05DF804FB00BFAFF30080AFF3008047
:102D800000B585B0039002910192039B0C33184665
:102D90000299019A4FF0FF33FFF7E2FB0346184612
:102DA00005B05DF804FB00BFAFF30080AFF3008017
:102DB00000B583B001900B468DF80330019B03F101
:102DC00030029DF80330104619464FF0FF32FFF7EE
:102DD00087FC0346184603B05DF804FBAFF30080A0
:102DE00000B583B00190019B0C3318464FF0FF31C2
:102DF000FFF76EFB0346184603B05DF804FB00BF07
:102E000000B585B003900B4601928DF80B30039B03
:102E100003F130029DF80B3010461946019AFFF776
:102E20005FFC0346184605B05DF804FBAFF3008075
:102E300000B583B001900091019B0C3318460099B6
:102E4000FFF746FB0346184603B05DF804FB00BFDE
:102E500000B585B00390029101920093039B30333B
:102E600018460299019A009BFFF7D2FC03461846C8
:102E700005B05DF804FB00BFAFF30080AFF3008046
:102E800000B585B00390029101920093039B0C332F
:102E900018460299019A009BFFF762FB0346184609
:102EA00005B05DF804FB00BFAFF30080AFF3008016
:102EB00008B501F02DFF08BDAFF30080AFF300802F
:102EC00000B587B0059004910392059B144A1A60DF
:102ED000059B1A1D059B5A60059B01221A72059BD2
:102EE00003F10C01059B03F15402059B0093084676
:102EF00011464FF48072049BFFF74AFA059B03F1D9
:102F00003001059B03F5AA72059B00930846114604
:102F10004FF48072039BFFF78BFB07B05DF804FB57
:102F2000C0270108AFF30080AFF30080AFF300804B
:102F300000B583B001900091019B002B02D1114894
:102F4000FEF76EFA202383F31188FEF759F9019BEF
:102F50001B7A012B06D0019B1B7A022B02D00A4858
:102F6000FEF75EFA0198009901F0EAFE019B022249
:102F70001A72FEF75DF9002383F3118803B05DF840
:102F800004FB00BFE01E0108EC1E0108AFF3008047
:102F900000B583B001900B468DF80330FEF7D0F9F1
:102FA000019B002B02D11148FEF73AFA019B5B69A5
:102FB000002B05D1019B043318460421FFF7E8F8E4
:102FC000019B03F10C029DF8033010461946FFF7F0
:102FD0002FFA0346002B05DA019B043318468021A3
:102FE000FFF7D6F803B05DF804FB00BF181F010817
:102FF00000B585B0039002910192039B30331846CF
:103000000299019A4FF0FF33FFF702FC034618467E
:1030100005B05DF804FB00BFAFF30080AFF30080A4
:1030200000B585B0039002910192039B0C331846C2
:103030000299019A4FF0FF33FFF792FA03461846C0
:1030400005B05DF804FB00BFAFF30080AFF3008074
:1030500000B583B001900B468DF80330019B03F15E
:1030600030029DF80330104619464FF0FF32FFF74B
:1030700037FB0346184603B05DF804FBAFF300804E
:1030800000B583B00190019B0C3318464FF0FF311F
:10309000FFF71EFA0346184603B05DF804FB00BFB5
:1030A00000B585B003900B4601928DF80B30039B61
:1030B00003F130029DF80B3010461946019AFFF7D4
:1030C0000FFB0346184605B05DF804FBAFF3008024
:1030D00000B583B001900091019B0C331846009914
:1030E000FFF7F6F90346184603B05DF804FB00BF8E
:1030F00000B585B00390029101920093039B303399
:1031000018460299019A009BFFF782FB0346184676
:1031100005B05DF804FB00BFAFF30080AFF30080A3
:1031200000B585B00390029101920093039B0C338C
:1031300018460299019A009BFFF712FA03461846B7
:1031400005B05DF804FB00BFAFF30080AFF3008073
:1031500000B587B00190019B1B6A0593059BD3F8CE
:1031600054321B681B78042B03D1059B1B7A022B5E
:1031700000D05AE0059BD3F854321A68059BD3F867
:1031800054325B7902339B0013445B685B8A04937F
:10319000059BD3F854321B685B891A46059BD3F80C
:1031A00054325B7942FA03F303F00103002B3CD164
:1031B000059BDB691A46059B9B69D31A1A46059B3A
:1031C0005B69D31A0393039A049B9A422DD3FEF7AB
:1031D0002FF8002383F31188039A049BB2FBF3F3C7
:1031E000049A02FB03F30393059BD3F85432196846
:1031F000059BD3F854325A79059B0C330846114687
:103200001A46039B00F09CFD202383F31188FDF7F1
:10321000F7FF059BD3F854321A68059BD3F8543254
:103220005B791046194600F0DBFD07B05DF804FB42
:1032300000B585B00190019B1B6A0393039BD3F8F3
:1032400054321B681B78042B03D1039B1B7A022B7F
:1032500000D043E0039BD3F854321B681B891A4605
:10326000039BD3F854321B7942FA03F303F00103B2
:10327000002B33D1039B1B6C1A46039BDB6BD31AC9
:103280001A46039B9B6BD31A0293029B002B25D0FB
:10329000FDF7CEFF002383F31188039BD3F854324C
:1032A0001968039BD3F854321A79039B30330846CC
:1032B00011461A46029B00F06BFD202383F3118810
:1032C000FDF79EFF039BD3F854321A68039BD3F893
:1032D00054321B791046194600F0BAFD05B05DF86E
:1032E00004FB00BFAFF30080AFF30080AFF30080BA
:1032F000704700BFAFF30080AFF30080AFF30080F2
:1033000000B585B00390039B144A1A60039B1A1DF5
:10331000039B5A60039B01221A72039B03F10C0169
:10332000039B03F15402039B0093084611464FF49C
:1033300080720B4BFFF72CF8039B03F13001039BCA
:1033400003F5AA72039B0093084611464FF480725E
:10335000044BFFF76DF905B05DF804FBE0270108A9
:103360005131000831320008AFF30080AFF3008024
:1033700000B585B001900091009B1B680393019BF1
:10338000002B02D11D48FEF74BF8202383F3118850
:10339000FDF736FF019B1B7A012B06D0019B1B7AA0
:1033A000022B02D01648FEF73BF8009B1B79013B2D
:1033B000039A0A339B001344019A5A60009B5B797D
:1033C0005A1E039B1232019943F82210009B9B79ED
:1033D000013B039A0A339B001344019A5A60019BF4
:1033E000009AC3F85422019B02221A72FDF720FFB3
:1033F000002383F3118805B05DF804FB401F01082A
:10340000501F0108AFF30080AFF30080AFF30080DE
:1034100010B584B00190019BD3F854321B6803931C
:10342000019B0C331846FEF7DBFF019B3033184637
:10343000FFF726F9019B043318460121FEF7A8FE89
:10344000019BD3F854325979019B03F10C04019B81
:10345000D3F854325B79039A02339B0013445B68C0
:103460005B8A0398224600F06BFC019BD3F8543230
:103470005B790398194600F0B3FC04B010BD00BF9F
:1034800082B00190019B93F8743003F06003202B0D
:103490002CD1019B93F87530212B04D0222B18D00E
:1034A000202B0BD020E0019B124A9A66019B072239
:1034B000DA66019B00221A67012318E0019B0D4A7E
:1034C0009A66019B0722DA66019B00221A67012394
:1034D0000DE0019B00229A66019B0022DA66019BA7
:1034E00000221A67012302E0002300E000231846AF
:1034F00002B0704700080020AFF30080AFF30080F7
:1035000000B585B001900B468DF803309DF803306F
:10351000013B019A0A339B0013445B680393039BAE
:10352000002B00D172E0202383F31188FDF798FE71
:10353000039B043318460821FEF72AFE039B1B6CED
:103540001A46039BDB6BD31A1A46039B9B6BD31A59
:103550000293029B002B1AD0FDF79AFE002383F3FF
:103560001188039B30339DF80320019811461A46B9
:10357000029B00F00DFC202383F31188FDF770FE01
:103580009DF803300198194600F062FC39E09DF87F
:103590000330019A02339B0013445B685B695B68EC
:1035A000002B2ED09DF80330019A02339B00134468
:1035B0005B685B695A689DF80330019902339B0090
:1035C0000B445B681B8A013B1340002B19D1FDF7AC
:1035D0005FFE002383F31188039B30339DF80320A3
:1035E000019811461A46002300F0D2FB202383F3F2
:1035F0001188FDF735FE9DF803300198194600F05B
:1036000027FCFDF745FE002383F3118805B05DF824
:1036100004FB00BFAFF30080AFF30080AFF3008086
:1036200000B587B001900B468DF803309DF803304C
:103630005A1E019B123253F822300593059B002B32
:1036400000D149E0202383F31188FDF709FE059B93
:10365000043318460421FEF79BFD9DF80330019AC0
:1036600002339B0013445B685B8A0493059BDB6910
:103670001A46059B9B69D31A1A46059B5B69D31AA8
:103680000393039A049B9A4221D3FDF701FE002382
:1036900083F31188039A049BB2FBF3F3049A02FBB1
:1036A00003F30393059B0C339DF803200198114607
:1036B0001A46039B00F044FB202383F31188FDF797
:1036C000CFFD9DF803300198194600F089FBFDF706
:1036D000DFFD002383F3118807B05DF804FB00BF12
:1036E00082B001900B468DF8033002B0704700BFE6
:1036F00008B501F0ADF908BDAFF30080AFF300806D
:1037000000B583B00190019B01221A70019B002239
:103710005A60019B00229A60019B0C331846FEF709
:10372000A7FB03B05DF804FBAFF30080AFF30080AC
:1037300000B583B00190019B93F87620019B83F83C
:103740007E20019801F004FF019B5B681B68002B41
:1037500005D0019B5B681B68019801219847019B7C
:1037600003221A7003B05DF804FB00BFAFF30080C2
:1037700010B584B00190019B93F8743003F07F0280
:10378000019B93F875301B021343B3F5407F59D06A
:10379000B3F5407F12DC022B00F0E480022B05DC45
:1037A000002B27D0012B00F0D2809CE1B3F5807F65
:1037B0002DD0B3F5817F00F02C8194E1B3F5C06F7B
:1037C00066D0B3F5C06F08DC40F20232934200F0DD
:1037D0005581B3F5A06F50D085E1B3F5106F00F0BF
:1037E0008E8040F60242934200F0B180B3F5006F44
:1037F00078D078E1019B03F17C02019B9A66019BE2
:103800000222DA66019B00221A6701236CE1019B08
:1038100093F87630012B13D1019BB3F87C3023F061
:1038200002039AB2019BA3F87C20019B00229A66B6
:10383000019B0022DA66019B00221A67012353E1F3
:10384000002351E1019B93F87630012B13D1019BAA
:10385000B3F87C3043F002039AB2019BA3F87C20BA
:10386000019B00229A66019B0022DA66019B0022DE
:103870001A67012338E1002336E1019B00229A6692
:10388000019B0022DA66019B994A1A6701232BE10A
:10389000019B5B685C68019B93F87710019B93F830
:1038A0007620019B93F8783098B2019B93F8793099
:1038B0001B029BB203439BB29BB20198A0470390AB
:1038C000039B002B01D100230EE1039B5A68019B4F
:1038D0009A66039B1A68019BDA66019B00221A67AD
:1038E000012301E1019B03F17F02019B9A66019B89
:1038F0000122DA66019B00221A670123F4E0019B92
:1039000093F87620019B83F87F20019B93F87F300A
:10391000002B03D1019B03221A7002E0019B0422B9
:103920001A70019B5B681B68002B05D0019B5B68CC
:103930001B68019802219847019B00229A66019B0F
:103940000022DA66019B00221A670123CCE0019B6A
:10395000684A9A66019B0222DA66019B00221A6776
:103960000123C1E0019B93F87830DBB25BB2002BFE
:1039700027DA019B93F8783003F00F03DBB201984C
:10398000194601F0C5FE0346012B02D0022B0BD0D5
:1039900015E0019B584A9A66019B0222DA66019B58
:1039A00000221A6701239FE0019B544A9A66019BFB
:1039B0000222DA66019B00221A67012394E00023A9
:1039C00092E0019B93F8783003F00F03DBB201988B
:1039D000194601F07DFE0346012B02D0022B0BD0CD
:1039E00015E0019B444A9A66019B0222DA66019B1C
:1039F00000221A67012377E0019B404A9A66019BE7
:103A00000222DA66019B00221A6701236CE0002380
:103A10006AE0019B93F87630002B01D0002363E02D
:103A2000019B93F8783003F00F03002B1BDD019B03
:103A300093F87830DBB25BB2002B0ADA019B93F883
:103A4000783003F00F03DBB20198194601F0F0FF64
:103A500009E0019B93F8783003F00F03DBB2019883
:103A6000194601F0BDFF019B00229A66019B0022CE
:103A7000DA66019B00221A67012335E0019B93F867
:103A80007630002B01D000232EE0019B93F8783094
:103A900003F00F03002B1BDD019B93F87830DBB2A2
:103AA0005BB2002B0ADA019B93F8783003F00F0326
:103AB000DBB20198194601F073FF09E0019B93F80E
:103AC000783003F00F03DBB20198194601F048FF8C
:103AD000019B00229A66019B0022DA66019B00226C
:103AE0001A67012300E00023184604B010BD00BF90
:103AF0003137000800280108202801081028010893
:103B000008B501F0BDFC08BDAFF30080AFF3008045
:103B100084B00190019B01221A70019B00225A601F
:103B2000002303930FE0019A039B0A339B00134485
:103B300000225A60019B039A1232002143F822109E
:103B4000039B01330393039B062BECD9019B0022BB
:103B50001A81019B00225A8104B07047AFF30080A4
:103B600000B585B001900091019B002B02D0009B15
:103B7000002B02D11948FDF753FC202383F3118851
:103B8000FDF73EFB019B1B78012B06D0019B1B78A8
:103B9000022B02D01248FDF743FC019B009A5A60A9
:103BA0000023039309E0019A039B02339B00134413
:103BB00000225A60039B01330393039B072BF2D926
:103BC000019801F065FC019B02221A70FDF730FBA1
:103BD000002383F3118805B05DF804FB801F010802
:103BE000901F0108AFF30080AFF30080AFF30080B7
:103BF00000B585B003900B4601928DF80B30FDF7B0
:103C00009FFB039B002B02D0019B002B02D11E487F
:103C1000FDF706FC039B1B78042B02D01B48FDF725
:103C2000FFFB9DF80B30039A02339B0013445B6843
:103C3000002B02D01648FDF7F3FB019B5B69002BBC
:103C400006D0019B5B691846002110220BF090F909
:103C5000019B9B69002B06D0019B9B6918460021A4
:103C600014220BF085F99DF80B30039A02339B0068
:103C70001344019A5A609DF80B300398194601F0DD
:103C800077FC05B05DF804FBBC1F0108D41F0108D8
:103C9000F01F0108AFF30080AFF30080AFF30080A6
:103CA00000B587B00390019200930B468DF80B305E
:103CB0009DF80B30039A02339B0013445B689B69A9
:103CC0000593059B00221A70059B019ADA60059BFB
:103CD000009A5A60059B00229A609DF80B30039869
:103CE000194601F06DFD07B05DF804FBAFF30080ED
:103CF00000B587B00390019200930B468DF80B300E
:103D00009DF80B30039A02339B0013445B685B6998
:103D10000593059B00221A70059B019ADA60059BAA
:103D2000009A5A60059B00229A609DF80B30039818
:103D3000194601F07DFD07B05DF804FBAFF300808C
:103D400000B587B00390019200930B468DF80B30BD
:103D50009DF80B30039A02339B0013445B689B6908
:103D60000593059B01221A70059B019ADA60059B59
:103D7000009A5A60059B00229A609DF80B300398C8
:103D8000194601F01DFD07B05DF804FBAFF300809C
:103D900000B587B00390019200930B468DF80B306D
:103DA0009DF80B30039A02339B0013445B685B69F8
:103DB0000593059B01221A70059B019ADA60059B09
:103DC000009A5A60059B00229A609DF80B30039878
:103DD000194601F02DFD07B05DF804FBAFF300803C
:103DE00000B583B001900B468DF80330FDF7A8FABB
:103DF000019B002B02D11548FDF712FB019B5B894B
:103E00001A469DF8033042FA03F303F00103002B36
:103E100001D0012315E0019B5B8999B29DF8033025
:103E2000012202FA03F39BB20A4613439BB29AB2F1
:103E3000019B5A819DF803300198194601F050FD0D
:103E40000023184603B05DF804FB00BF44200108BE
:103E500000B583B001900B468DF80330FDF770FA82
:103E6000019B002B02D11548FDF7DAFA019B1B8953
:103E70001A469DF8033042FA03F303F00103002BC6
:103E800001D0012315E0019B1B8999B29DF80330F5
:103E9000012202FA03F39BB20A4613439BB29AB281
:103EA000019B1A819DF803300198194601F038FDF5
:103EB0000023184603B05DF804FB00BF5C20010836
:103EC00000B585B00190019B02221A70019B00226F
:103ED000A3F87C20019B002283F87E20019B002216
:103EE00083F87F20019B00221A81019B00225A81C6
:103EF0000023039309E0019A039B02339B001344C0
:103F000000225A60039B01330393039B072BF2D9D2
:103F1000019B002283F86420019801F0E9FA05B0C2
:103F20005DF804FBAFF30080AFF30080AFF30080D7
:103F300000B585B001900B468DF80330019B00223F
:103F400083F86420019B74339DF803200198114687
:103F50001A4601F0FDFB019B5B689B68002B0AD0B1
:103F6000019B5B689B6801989847034683F00103B7
:103F7000DBB2002B27D0019B93F8743003F0600371
:103F8000002B08D10198FFF7F3FB034683F00103F0
:103F9000DBB2002B17D00198002101F001FD019840
:103FA000002101F0DDFC019B5B681B68002B05D044
:103FB000019B5B681B68019805219847019B0622BD
:103FC00083F8642087E0019B93F87A301A46019BBE
:103FD00093F87B301B0213430393019BDA6E039B20
:103FE0009A4202D9019B039ADA66019B93F87430D6
:103FF000DBB25BB2002B37DA019BDB6E002B1AD0F1
:10400000019B012283F86420019B9A6E019BDB6E69
:1040100001980021FFF76CFE202383F31188FDF740
:104020001FF901980021FFF713FFFDF731F9002375
:1040300083F311884FE0019B032283F864200198E9
:10404000002100220023FFF72BFE202383F3118899
:10405000FDF706F901980021FFF7C2FEFDF718F9F8
:10406000002383F3118836E0019BDB6E002B1AD00E
:10407000019B042283F86420019B9A6E019BDB6EF6
:1040800001980021FFF70CFE202383F31188FDF730
:10409000E7F801980021FFF7A3FEFDF7F9F80023E8
:1040A00083F3118817E0019B052283F864200198AF
:1040B000002100220023FFF71BFE202383F3118839
:1040C000FDF7CEF801980021FFF7C2FEFDF7E0F8FA
:1040D000002383F3118805B05DF804FBAFF3008083
:1040E00000B585B001900B468DF80330019B93F825
:1040F0006430022B37D0052B4ED0012B59D1019BB8
:1041000093F87A301A46019B93F87B301B021343D5
:104110000393019BDA6E039B9A4224D2019BDB6ED0
:10412000019AD268128AB3FBF2F102FB01F29B1AE8
:10413000002B18D10198002100220023FFF7D8FDA1
:10414000202383F31188FDF78BF801980021FFF7F6
:104150007FFEFDF79DF8002383F31188019B022267
:1041600083F864203CE0019B032283F864200198DB
:10417000002100220023FFF793FD202383F3118801
:10418000FDF76EF801980021FFF72AFEFDF780F891
:10419000002383F3118823E0019B1B6F002B03D0C6
:1041A000019B1B6F01989847019B002283F86420B4
:1041B00016E00198002101F0F3FB0198002101F0C5
:1041C000CFFB019B5B681B68002B05D0019B5B68E4
:1041D0001B68019805219847019B062283F86420FB
:1041E00005B05DF804FB00BFAFF30080AFF30080C3
:1041F00000B583B001900B468DF80330019B93F816
:104200006430032B1AD0042B2CD1019B052283F898
:1042100064200198002100220023FFF769FD20237C
:1042200083F31188FDF71CF801980021FFF710FEB9
:10423000FDF72EF8002383F311882AE0019BDB6849
:104240009B699B68002B00D00CE0019B1B6F002B2F
:1042500003D0019B1B6F01989847019B002283F8B4
:10426000642016E00198002101F09AFB01980021DA
:1042700001F076FB019B5B681B68002B05D0019B5E
:104280005B681B68019805219847019B062283F80B
:10429000642003B05DF804FBAFF30080AFF300804F
:1042A00000B583B0FDF70CF80C4B1B6803F00F034F
:1042B00001930A4A019B5360094B1B68002B06D0EF
:1042C000074B1B68064A5268104601999847FDF74C
:1042D00017F8FCF7DDFD03B05DF804FB00000240B9
:1042E000E4160020AFF30080AFF30080AFF300804E
:1042F00000B583B0FCF7E4FF0D4B1B681B0903F00E
:104300000F0301930A4A019B1B015360094B9B68F1
:10431000002B06D0074B9B68064AD26810460199CD
:104320009847FCF7EDFFFCF7B3FD03B05DF804FB25
:1043300000000240E4160020AFF30080AFF30080DD
:1043400000B583B0FCF7BCFF0D4B1B681B0A03F0E4
:104350000F0301930A4A019B1B025360094B1B691F
:10436000002B06D0074B1B69064A5269104601997B
:104370009847FCF7C5FFFCF78BFD03B05DF804FB25
:1043800000000240E4160020AFF30080AFF300808D
:1043900000B583B0FCF794FF0D4B1B681B0B03F0BB
:1043A0000F0301930A4A019B1B035360094B9B694E
:1043B000002B06D0074B9B69064AD269104601992B
:1043C0009847FCF79DFFFCF763FD03B05DF804FB25
:1043D00000000240E4160020AFF30080AFF300803D
:1043E00000B583B0FCF76CFF0D4B1B681B0C03F092
:1043F0000F0301930A4A019B1B045360094B1B6A7C
:10440000002B06D0074B1B6A064A526A10460199D8
:104410009847FCF775FFFCF73BFD03B05DF804FB24
:1044200000000240E4160020AFF30080AFF30080EC
:1044300000B583B0FCF744FF0D4B1B681B0D03F068
:104440000F0301930A4A019B1B055360094B9B6AAA
:10445000002B06D0074B9B6A064AD26A1046019988
:104460009847FCF74DFFFCF713FD03B05DF804FB24
:1044700000000240E4160020AFF30080AFF300809C
:1044800000B583B0FCF71CFF0D4B1B681B0E03F03F
:104490000F0301930A4A019B1B065360094B1B6BD8
:1044A000002B06D0074B1B6B064A526B1046019936
:1044B0009847FCF725FFFCF7EBFC03B05DF804FB25
:1044C00000000240E4160020AFF30080AFF300804C
:1044D00000B583B0FCF7F4FE0C4B1B6803F00F0330
:1044E00001930A4A019B5360094B9B6B002B06D03A
:1044F000074B9B6B064AD26B104601999847FCF715
:10450000FFFEFCF7C5FC03B05DF804FB00040240AD
:10451000E4160020AFF30080AFF30080AFF300801B
:1045200000B583B0FCF7CCFE0D4B1B681B0903F0F4
:104530000F0301930A4A019B1B015360094B1B6C3B
:10454000002B06D0074B1B6C064A526C1046019993
:104550009847FCF7D5FEFCF79BFC03B05DF804FB25
:1045600000040240E4160020AFF30080AFF30080A7
:1045700000B583B0FCF7A4FE0D4B1B681B0A03F0CB
:104580000F0301930A4A019B1B025360094B9B6C6A
:10459000002B06D0074B9B6C064AD26C1046019943
:1045A0009847FCF7ADFEFCF773FC03B05DF804FB25
:1045B00000040240E4160020AFF30080AFF3008057
:1045C00000B583B0FCF77CFE0D4B1B681B0B03F0A2
:1045D0000F0301930A4A019B1B035360094B1B6D98
:1045E000002B06D0074B1B6D064A526D10460199F1
:1045F0009847FCF785FEFCF74BFC03B05DF804FB25
:1046000000040240E4160020AFF30080AFF3008006
:1046100000B583B0FCF754FE0D4B1B681B0C03F078
:104620000F0301930A4A019B1B045360094B9B6DC6
:10463000002B06D0074B9B6D064AD26D10460199A0
:104640009847FCF75DFEFCF723FC03B05DF804FB24
:1046500000040240E4160020AFF30080AFF30080B6
:1046600082B0124B00221A600023019311E010491E
:10467000019A13465B0013449B000B441B68002205
:104680001A600C4A019B002142F83310019B013350
:104690000193019B0B2BEADD074B4FF0FF325A6071
:1046A000064B4FF0FF325A6002B07047E016002010
:1046B00030280108E41600200000024000040240F7
:1046C000094A094B1B6843F480731360074B1B6A4C
:1046D00003F44073002B06D0044B4FF480321A626F
:1046E000024B00221A627047007000400010024026
:1046F00008B5234B1B69224B4FF0FF321A61204B48
:1047000000221A611E4BDB681D4B4FF0FF32DA604E
:104710001B4B0022DA601A4B9B6A194B4FF0FF3299
:104720009A62174B00229A62164B174A5A60154B31
:1047300000229A60134B07221A60144A134BDB685D
:1047400043F08073D360124A114B1B6843F001039E
:1047500013600B4A0A4BDB6943F08053D361FFF7C8
:10476000AFFFFFF77DFF064A054B9B6943F001034E
:104770009361084A074B1B6843F02003136008BD90
:104780000010024010E000E03F190100F0ED00E0F1
:10479000001000E000000140AFF30080AFF30080A4
:1047A000284A284B1B6843F00103136000BF254BC8
:1047B0001B6803F00203002BF9D0224A214B1B682F
:1047C00003F0F90313601F4B00225A6000BF1D4B1A
:1047D0005B6803F00C03002BF9D11A4A194B1B68D4
:1047E00043F4A023136000BF164B1B6803F400338F
:1047F000002BF9D0134B144A5A60124B42F20212AA
:10480000DA62104B30221A630E4A0E4B1B6843F0DB
:104810008073136000BF0B4B1B6803F00073002B09
:10482000F9D00A4B12221A60064A064B5B6843F025
:104830000203536000BF034B5B6803F00C03082BBB
:10484000F9D170470010024000241D0000200240F2
:1048500082B001900091009B5A68019B5A60009BB6
:104860009A68019B9A60009BDA68019BDA60009B62
:104870001A69019B5A61009B5A69019B1A62009B4D
:104880009A69019B5A62009B1A68019B1A6002B0E8
:10489000704700BFAFF30080AFF30080AFF300803C
:1048A00000B583B00190164A154B5B6943F4FC03D5
:1048B0005361019B4FF090401946FFF7C9FF019BE0
:1048C0001C3310481946FFF7C3FF019B38330E48CD
:1048D0001946FFF7BDFF019B54330C481946FFF7FB
:1048E000B7FF019B70330A481946FFF7B1FF019BE0
:1048F0008C3308481946FFF7ABFF03B05DF804FBA3
:10490000001002400004004800080048000C004865
:104910000010004800140048AFF30080AFF300809F
:104920008EB0039002910192019B03F003030D935B
:10493000019B03F004039B080C93019B03F01803F5
:10494000DB080B93019B03F060035B090A93019B57
:1049500003F4F063DB09089300230993029B03F03F
:104960000103002B54D0099B03F007039B001A4658
:10497000089B93400793099B03F007039B001A468B
:104980000F2393400693099B072B09D8039B1A6AB0
:10499000069BDB431A40079B1A43039B1A6208E0FD
:1049A000039B5A6A069BDB431A40079B1A43039BEF
:1049B0005A62099B012202FA03F30593039B5A688A
:1049C000059BDB431A400C9B1A43039B5A60099BCF
:1049D0005B001A46032393400493039B9A68049B4D
:1049E000DB431A400B9B1A43039B9A60039BDA68D4
:1049F000049BDB431A400A9B1A43039BDA60039B28
:104A00001A68049BDB431A400D9B1A43039B1A60F0
:104A1000029B5B080293029B002B00D10FE00C9BD2
:104A20005B000C930B9B9B000B930A9B9B000A93D0
:104A30000D9B9B000D93099B013309938EE70EB0EC
:104A4000704700BFAFF30080AFF30080AFF300808A
:104A500008B50C4B4FF6FF721A800B48FEF750FE5C
:104A6000094B0A4ADA61084B094A1A62064B094A9D
:104A70005A62054B41F20A029A62034B41F2180254
:104A8000DA6208BD74170020441700200038004087
:104A90005428010860280108AFF30080AFF30080BC
:104AA00084B001900091019BD3F854320393019B91
:104AB000D3F85822009B1B68B2FBF3F39AB2039B16
:104AC0009A81009B9B6843F04002039B5A60009BC5
:104AD000DB6843F00102039B9A60009B5B6843F430
:104AE000967343F00103039A1360039B4FF0FF3268
:104AF0001A6204B0704700BFAFF30080AFF30080CC
:104B000000B585B00190009100230393009B03F052
:104B10000803002B03D0039B43F080030393009B07
:104B200003F00103002B03D0039B43F02003039306
:104B3000009B03F00203002B03D0039B43F04003D0
:104B40000393009B03F00403002B03D0039B43F467
:104B500080730393202383F31188FCF781FB019B6F
:104B6000043318460399FDF713FBFCF791FB002370
:104B700083F3118805B05DF804FB00BFAFF300803C
:104B800000B587B00190019BD3F854320593059B83
:104B90001B680493059BDB690393059B039A1A62C8
:104BA000039B03F00F03002B03D001980399FFF739
:104BB000A7FF039B03F48073002B10D0202383F303
:104BC0001188FCF74DFB019B043318464FF400712C
:104BD000FDF7DEFAFCF75CFB002383F31188039BEF
:104BE00003F02003002B11D0202383F31188FCF75E
:104BF00037FB059B9B8C9BB2DBB201981946FEF7F5
:104C0000C7F9FCF745FB002383F31188049B03F0ED
:104C10008003002B29D0039B03F08003002B24D0BA
:104C2000202383F31188FCF71BFB019B30331846CC
:104C3000FDF7A6FD0290029B002B0DDA019B0433C9
:104C400018460821FDF7A4FA049B23F0C00343F0A3
:104C50004002059B1A6003E0029B9AB2059B1A85ED
:104C6000FCF716FB002383F31188039B03F040033A
:104C7000002B26D0202383F31188FCF7F1FA019B47
:104C80005A6C019B9B6C9A4205D1019B9B6B002B3C
:104C900001D0012300E0002303F00103DBB2002B6D
:104CA00005D0019B043318461021FDF771FA049BCF
:104CB00023F04002059B1A60FCF7EAFA002383F315
:104CC000118807B05DF804FBAFF30080AFF30080FC
:104CD00082B00190034A034B1B6843F080031360CA
:104CE00002B0704700480040AFF30080AFF300808F
:104CF00008B5FCF7E5FA0448FFF742FFFCF700FBB4
:104D0000FCF7C6F808BD00BF78170020AFF300809D
:104D100008B507480021074AFEF7D2F8044B064AB7
:104D2000C3F85422024B054AC3F8582208BD00BFFD
:104D300078170020D14C000800480040005125029F
:104D400000B583B001900091009B002B01D10D4B69
:104D50000093019B1B7A012B0DD1019B0A4A9342C0
:104D600009D10A4A094BDB6943F48023D361272028
:104D7000C021FCF705F901980099FFF791FE03B0F7
:104D80005DF804FBC02801087817002000100240DD
:104D900084B00190019B1B680393039B1A68019BDD
:104DA0001A60019B1B68019A5A60039B184604B065
:104DB000704700BFAFF30080AFF30080AFF3008017
:104DC00082B00190019B4022C3F8802002B070475E
:104DD00000B585B001900091019BD3F8803003931A
:104DE000019BD3F88020009B1A44019BC3F88020CC
:104DF000019BD3F88030B3F5007F02D90348FCF75C
:104E00000FFB039B184605B05DF804FBB0200108BA
:104E100086B0039002910192039B9B6803F10053BB
:104E200003F540535B000593019B01335B0801933D
:104E30000CE0059B1A1D05921B689AB2029B1A8012
:104E4000029B02330293019B013B0193019B002BC8
:104E5000EFD106B0704700BFAFF30080AFF3008022
:104E600000B589B0039002910192039B9B6803F106
:104E7000005303F540535B000693019B5B080793C7
:104E80002CE0069B1A1D06921B680593029B5B692A
:104E9000591C029A5161059AD2B21A70029B5A6942
:104EA000029B1B699A4203D3029BDA68029B5A61F8
:104EB000029B5B69591C029A5161059A120AD2B28F
:104EC0001A70029B5A69029B1B699A4203D3029B88
:104ED000DA68029B5A61079B013B0793079B002BF3
:104EE000CFD1019B03F00103002B12D0029B5B6921
:104EF000591C029A5161069A1268D2B21A70029B2A
:104F00005A69029B1B699A4203D3029BDA68029B8F
:104F10005A61202383F31188FCF7A2F9029B9A6857
:104F2000019B1A44029B9A600AE0029B1846FFF715
:104F30002FFF03461846FCF763FB024600239362EB
:104F4000029B1A68029B9A42EFD1FCF7A1F9002359
:104F500083F3118809B05DF804FB00BFAFF3008054
:104F600086B0039002910192039B1B6803F10053EA
:104F700003F540535B000593019B9AB2039B9A8013
:104F8000019B01335B0801930BE0059B1A1D059201
:104F9000029A12881A60029B02330293019B013B22
:104FA0000193019B002BF0D106B07047AFF3008056
:104FB00000B589B0039002910192039B1B6803F135
:104FC000005303F540535B000693019B9AB2039B89
:104FD0009A80019B5B0807932CE0029B9B69591CFC
:104FE000029A91611B780593029B9A69029B1B6947
:104FF0009A4203D3029BDA68029B9A61029B9B69E7
:10500000591C029A91611B781B02059A1343059360
:10501000029B9A69029B1B699A4203D3029BDA683E
:10502000029B9A61069B1A1D0692059A1A60079BBD
:10503000013B0793079B002BCFD1019B03F001039A
:10504000002B12D0029B9B69591C029A91611B781C
:105050001A46069B1A60029B9A69029B1B699A4238
:1050600003D3029BDA68029B9A61202383F31188A1
:10507000114B01221A60029B9A68019B1A44029B01
:105080009A600AE0029B1846FFF782FE0346184624
:10509000FCF7B6FA024600239362029B1A68029B51
:1050A0009A42EFD1044B00221A60002383F3118847
:1050B00009B05DF804FB00BF78120020AFF3008058
:1050C00008B5FCF7FDF8FCF71BF9FBF7E1FE08BD9E
:1050D00000B58BB09E4B0793FCF7F2F89D4B5B6CD1
:1050E0000993099B03F48063002B11D00798FEF706
:1050F000E7FE079B5B681B68002B05D0079B5B687E
:105100001B68079800219847924B6FF480625A649D
:10511000099B03F40063002B14D08E4A8D4B1B6C4B
:1051200043F008031364079B5B681B68002B05D0E2
:10513000079B5B681B68079803219847854B6FF4B2
:1051400000625A64099B03F48053002B1CD0814BEE
:105150009B6C0693069B03F40043002B10D17D4A01
:105160007C4B1B6C23F008031364079B5B681B6874
:10517000002B05D0079B5B681B68079804219847A4
:10518000744B6FF480525A64099B03F40073002B34
:105190000DD0079B5B68DB68002B04D0079B5B6826
:1051A000DB68079898476B4B6FF400725A6453E1C1
:1051B000684A099B03F00F030593059B52F82330BF
:1051C0000493079A059B02339B0013445B68039387
:1051D000049B03F08003002B00F096805D495D4A3C
:1051E000059B52F8233023F4F14323F07003059A12
:1051F00041F82230574B1A6D059BDB00134403F135
:10520000005303F540535B009B889BB20293039BC2
:105210005B69039A52699168029A0A449A60039BF7
:105220005B695A68039B5B699B68D31A0893089B68
:10523000002B4DD0039B1B8A1A46089B9A4202D230
:10524000039B1B8A0893039B5B691B78002B13D07D
:10525000404B1A6D059BDB00134403F1005303F52B
:1052600040535B001A46039B5B69DB681046194696
:10527000089AFFF79DFE1AE0039B5B69039A526947
:10528000D168029A0A44DA60324B1A6D059BDB0042
:10529000134403F1005303F540535B001A46039B8C
:1052A0005B69DB6810461946089AFFF759FE202310
:1052B00083F31188FBF7D4FF059BDBB207981946EF
:1052C00000F02EFBFBF7E4FF002383F311881BE0C3
:1052D000079B1B8999B2059B012202FA03F39BB23B
:1052E000DB439BB20A4613409BB29AB2079B1A81DA
:1052F000079A059B02339B0013445B689B68059AE1
:10530000D2B2079811469847049B03F40043002B40
:1053100000F09F800F490F4A059B52F8233023F479
:10532000784323F07003059A41F82230049B03F47C
:105330000063002B10D0079A059B02339B00134497
:105340005B685B68059AD2B207981146984780E07F
:10535000D4190020005C0040464B1A6D059BDB0011
:10536000134403F1005303F540535B000193019B89
:105370009B899BB2C3F309030893039B9B691B782A
:10538000002B08D0039B9B69DB6801981946089A9B
:10539000FFF766FD0FE0039B9B69DB6801981946E8
:1053A000089AFFF735FD039B9B69039A9269D168C0
:1053B000089A0A44DA60039B9B69039A9269916890
:1053C000089A0A449A60039B9B69039A9269516800
:1053D000089A8A1A5A60039B9B69039A9269128AF7
:1053E000013A92B21A82039B5B8A1A46089B9A4240
:1053F00004D8039B9B691B8A002B1CD1079B5B89EC
:1054000099B2059B012202FA03F39BB2DB439BB2E4
:105410000A4613409BB29AB2079B5A81079A059B92
:1054200002339B0013445B68DB68059AD2B207988D
:10543000114698470DE00F490E4A059B52F823305C
:1054400023F4904323F0700383F44052059B41F80A
:105450002320084B5B6C0993099B03F40043002B4A
:105460007FF4A6AEFBF74CFFFBF712FD0BB05DF827
:1054700004FB00BF005C0040AFF30080AFF300808E
:1054800008B50248FEF744FB08BD00BFD419002050
:1054900000B583B00190019B1B78012B1AD1019BB1
:1054A0000E4A934213D10E4A0D4BDB6943F40003BD
:1054B000D3610C4B01221A644A20D021FBF760FD16
:1054C0004B20E021FBF75CFD064B00221A6401989B
:1054D000FEF7F6FC03B05DF804FB00BFD419002012
:1054E00000100240005C0040AFF30080AFF300808A
:1054F00000B585B00190124B00221A65104B0022B6
:105500005A640F4B8022DA644FF41C430393019BCF
:105510005B68DB68002B03D0039B43F400730393A9
:10552000074A039B13640198FFF74AFC019B054A55
:10553000DA600198002100F01BF805B05DF804FB6B
:10554000005C0040D0280108AFF30080AFF300807A
:1055500082B00190044A019B93F87E3063F07F0390
:10556000DBB2D36402B07047005C0040AFF3008050
:1055700010B586B001900B468DF803309DF80330CE
:10558000019A02339B0013445B680493049B1B68DD
:1055900003F00303022B08D0032B0AD0012B0DD1FB
:1055A0004FF48063ADF814300CE00023ADF81430F4
:1055B00008E04FF4C063ADF8143003E04FF400731B
:1055C000ADF81430049B9B68002B05D0BDF8143057
:1055D00043F02003ADF81430049BDB68002B05D0AA
:1055E000BDF8143043F40053ADF8143034489DF83E
:1055F0000320BDF814109DF803300B4323F4F0434F
:1056000023F0700340F822302D4C9DF803202C49E4
:105610009DF8033051F82310BDF8140047F67003CD
:1056200003404B4044F82230049B5B8A3E2B13D945
:10563000049B5B8A013B43F01F030133002B00DA1C
:105640001F335B119B029BB26FEA43436FEA5343E4
:105650009BB2ADF816300CE0049B5B8A013B43F033
:1056600001030133DA0F13445B109BB29B02ADF8C8
:105670001630134B1A6D9DF80330DB00134403F111
:10568000005303F540535B000393039B00229A8071
:10569000039BBDF816209A81049B1B8A019819462A
:1056A000FFF796FB0246039B1A60049B5B8A0198F6
:1056B0001946FFF78DFB0246039B9A6006B010BDAA
:1056C000005C0040AFF30080AFF30080AFF30080D8
:1056D00082B001900B468DF803300A4A9DF80330E2
:1056E00052F8233003F44053002B03D0B3F5805F0E
:1056F00002D003E0002302E0012300E00223184669
:1057000002B07047005C0040AFF30080AFF3008050
:1057100082B001900B468DF803300A4A9DF80330A1
:1057200052F8233003F03003002B02D0102B02D0AC
:1057300003E0002302E0012300E00223184602B048
:10574000704700BF005C0040AFF30080AFF3008003
:1057500088B003900B4601928DF80B30144B1A6DF4
:105760009DF80B30DB00134403F1005303F5405365
:105770005B000593059B9B6803F1005303F54053C1
:105780005B000793002306930CE0079B1A1D07920A
:105790001B689AB2019B1A80019B02330193069BFE
:1057A00001330693069B032BEFD908B0704700BF67
:1057B000005C0040AFF30080AFF30080AFF30080E7
:1057C00084B001900B468DF803309DF80330019AA8
:1057D00002339B0013445B689B690393039B5B68E4
:1057E000002B03D1039B01221A8218E0039B5A6805
:1057F0009DF80330019902339B000B445B685B8A80
:1058000013445A1E9DF80330019902339B000B4448
:105810005B685B8AB2FBF3F39AB2039B1A8204B013
:10582000704700BFAFF30080AFF30080AFF300809C
:1058300000B585B001900B468DF803309DF803301C
:10584000019A02339B0013445B685B690293029BDD
:105850005B6803939DF80330019A02339B00134465
:105860005B681B8A1A46039B9A4208D29DF8033054
:10587000019A02339B0013445B681B8A0393029BCB
:105880001B78002B13D0154B1A6D9DF80330DB00ED
:10589000134403F1005303F540535B001A46029B87
:1058A000DB6810461946039AFFF782FB12E00B4BA8
:1058B0001A6D9DF80330DB00134403F1005303F528
:1058C00040535B001A46029BDB6810461946039A58
:1058D000FFF746FB05B05DF804FB00BF005C00402D
:1058E00082B001900B468DF8033009499DF80320E2
:1058F00007489DF8033050F8233023F4904323F0F9
:10590000700383F4405341F8223002B0704700BF67
:10591000005C0040AFF30080AFF30080AFF3008085
:1059200082B001900B468DF8033009499DF80320A1
:1059300007489DF8033050F8233023F4F04323F058
:10594000400383F0300341F8223002B0704700BFBB
:10595000005C0040AFF30080AFF30080AFF3008045
:1059600082B001900B468DF8033009499DF8032061
:1059700007489DF8033050F8233023F4904323F078
:10598000700383F4805341F8223002B0704700BFA7
:10599000005C0040AFF30080AFF30080AFF3008005
:1059A00082B001900B468DF8033009499DF8032021
:1059B00007489DF8033050F8233023F4F04323F0D8
:1059C000400383F0100341F8223002B0704700BF5B
:1059D000005C0040AFF30080AFF30080AFF30080C5
:1059E00082B001900B468DF803300E4A9DF80330CB
:1059F00052F8233003F44053B3F5405F0FD0094908
:105A00009DF8032007489DF8033050F8233023F415
:105A1000F04323F0400383F4005341F8223002B0F6
:105A2000704700BF005C0040AFF30080AFF3008020
:105A300082B001900B468DF803300D4A9DF803307B
:105A400052F8233003F03003302B0FD008499DF873
:105A5000032007489DF8033050F8233023F4F04327
:105A600023F0400383F0200341F8223002B0704756
:105A7000005C0040AFF30080AFF30080AFF3008024
:105A800088B00390029101920093029B0593009BC2
:105A9000002B02D1029B049301E0009B0493039B23
:105AA0000B330693059B019AB3FBF2F2019901FBBC
:105AB00002F29B1A0793079B30330793079B392BFE
:105AC00002DD079B07330793069B013B0693079B69
:105AD000DAB2069B1A70059A019BB2FBF3F30593A9
