:020000040800F2
:1000000000040020010300080104000801040008A6
:1000100001040008010400080104000801040008AC
:10002000010400080104000801040008510400084C
:10003000010400080104000801040008210400086C
:1000400001040008B12800084129000871290008AE
:100050000104000801040008612600089126000838
:10006000C1260008F126000821270008B11D00085C
:10007000011E0008511E0008A11E0008F11E000804
:10008000411F0008911F0008A125000861380008E1
:1000900081380008A1380008C1380008512700083D
:1000A00001040008912B000801040008C12B00087E
:1000B000010400080104000801040008010400080C
:1000C00001040008010400080104000801040008FC
:1000D00001040008010400080104000801040008EC
:1000E000F1270008E1280008112900080104000890
:1000F00001040008010400080104000801040008CC
:1001000001040008010400080104000801040008BB
:1001100001040008010400080104000801040008AB
:10012000E11F00083120000881200008D1200008CC
:10013000212100080104000801040008010400084E
:10014000A1290008212A0008010400080104000870
:10015000010400080104000801040008010400086B
:10016000010400080104000801040008010400085B
:10017000010400080104000801040008010400084B
:0801800001040008010400085D
:0C01880021790008E1A10008C1A60008D0
:1001A000844641EA000313F003036DD1403A41D382
:1001B00051F8043B40F8043B51F8043B40F8043B41
:1001C00051F8043B40F8043B51F8043B40F8043B31
:1001D00051F8043B40F8043B51F8043B40F8043B21
:1001E00051F8043B40F8043B51F8043B40F8043B11
:1001F00051F8043B40F8043B51F8043B40F8043B01
:1002000051F8043B40F8043B51F8043B40F8043BF0
:1002100051F8043B40F8043B51F8043B40F8043BE0
:1002200051F8043B40F8043B51F8043B40F8043BD0
:10023000403ABDD2303211D351F8043B40F8043B70
:1002400051F8043B40F8043B51F8043B40F8043BB0
:1002500051F8043B40F8043B103AEDD20C3205D380
:1002600051F8043B40F8043B043AF9D2043208D078
:10027000D2071CBF11F8013B00F8013B01D30B88EA
:1002800003806046704700BF082A13D38B078DD0C8
:1002900010F003038AD0C3F10403D21ADB071CBF9A
:1002A00011F8013B00F8013B80D331F8023B20F804
:1002B000023B7BE7043AD9D3013A11F8013B00F83D
:1002C000013BF9D20B7803704B7843708B788370C5
:1002D00060467047000000000000000000000000C1
:1002E000704700BFAFF30080AFF30080AFF3008032
:1002F000FEE700BFAFF30080AFF30080AFF30080F4
:1003000072B62C4C84F309882B4B4FF040421A6094
:100310002A4A2A4B1B6843F4700313600024E1EE61
:10032000104A274B1C60062484F31488BFF36F8F98
:10033000244C254D04E023461C1D4FF055321A6015
:10034000AC42F8D3214C1B4D04E023461C1D4FF05A
:1003500055321A60AC42F8D303F04AFC1C4D1D4CD8
:1003600005E023461C1D2A46151D12681A601A4B0B
:100370009C42F6D3194C1A4D03E023461C1D002263
:100380001A60AC42F9D3FFF7ABFF164C02E02368CA
:1003900098470434144B9C42F9D30AF041F8134CAB
:1003A00002E0236898470434114B9C42F9D3FFF7CD
:1003B0009FFF00BF0008002034EF00E088ED00E060
:1003C0003CEF00E0000000200004002000040020BA
:1003D00018B5000800080020700C0020700C0020E8
:1003E000E41D002088010008940100089401000821
:1003F00094010008AFF30080AFF30080AFF30080FA
:10040000FEE700BFAFF30080AFF30080AFF30080E2
:1004100072B6FEE7AFF30080AFF30080AFF3008069
:1004200008B500F05DFA202383F3118800F028FA64
:1004300000F06EF900F03CFA002383F3118800F01D
:100440006FFA00F035F808BDAFF30080AFF300801D
:1004500082B00A4A094B5B6823F001035360EFF353
:1004600009830193019B68330193019B83F30988FE
:10047000002383F3118802B0704700BF30EF00E023
:1004800008B5094B00229A60074B084ADA6007203A
:10049000102100F0C5F80A20202100F0C1F80B203F
:1004A000802100F0BDF808BD00ED00E00003FA0572
:1004B00082B0202383F31188204B5B6803F4006330
:1004C000002B35D0F1EE10FAEFF309830193019B75
:1004D000683B0193019B4FF08072DA61019B83F3CB
:1004E0000988174B9B6993F82330002B0BD0144BD2
:1004F0001B689A68124B9B699B689A428CBF0123C8
:100500000023DBB20AE00E4B1B689A680C4B9B6918
:100510009B689A422CBF01230023DBB2002B03D03F
:10052000019B084A9A6106E0019B074A9A6102E032
:10053000002383F3118802B0704700BF00ED00E094
:1005400048120020510500085C050008AFF3008048
:1005500000F066F900F024FD00F07AF900DF00BF3A
:1005600003460A462DE9F04F2DED108AC2F80CD053
:10057000D3F80CD0BDEC108ABDE8F08FAFF300804B
:1005800008B500F065F9002383F311882846A047D9
:1005900000F05EFE08BD00BFAFF30080AFF3008047
:1005A00010B485B001900091019B03F00303DB00C0
:1005B0000393194C019B9B081749019A9208C0327A
:1005C00051F822200399FF2000FA01F1C94311409C
:1005D000039A009800FA02F20A43C03344F8232039
:1005E0000D49019B5B09019A02F01F02012000FAEC
:1005F00002F2603341F823200749019B5B09019A0D
:1006000002F01F02012000FA02F241F8232005B097
:100610005DF8044B704700BF00E100E0AFF30080DD
:1006200010B485B001900091019B03F00303DB003F
:1006300003930D4C019B9B080B49019A92080632CB
:1006400051F822200399FF2000FA01F1C94311401B
:10065000039A009800FA02F20A43063344F8232072
:1006600005B05DF8044B704700ED00E0AFF300808B
:1006700082B00190024B9B69024A9A61FEE700BF7B
:100680004812002060A90008AFF30080AFF300809B
:1006900000B583B0FFF7F4FE00F0AAFA00F0E0F92D
:1006A00001F0C6F801F01CF900F08AF91248402167
:1006B00000F096FC0246114B9A61104B9B69012297
:1006C00083F820200D4B9B690D4ADA6100F090F809
:1006D000002383F3118862B6084B9B69094A9A612B
:1006E0000023009308484FF4B4710122074B00F037
:1006F0001FFD03B05DF804FBD80D00204812002058
:100700000004002090B00008700C00207106000862
:1007100000B583B000F024F9244B9B6993F8233093
:10072000002B07D0214B9B6993F82320013AD2B2CA
:1007300083F823201D4B9B695A6A01325A621C4B75
:10074000DB6801331A4AD360194B1B68184A93427D
:1007500029D0174B1B689A68013A9A601CE0019BEC
:10076000DB680093019B0022DA60019B1B68104A42
:100770005A60019B1B680E4A136000F099F8002331
:1007800083F31188019B1A69009B10469847202328
:1007900083F3118800F074F8054B1B680193019BEB
:1007A0009B68002BDBD003B05DF804FB48120020EF
:1007B00038120020AFF30080AFF30080AFF3008069
:1007C00008B5064B1B68002B03D1054B1B68002B9B
:1007D00002D0044800F034F908BD00BF240E002008
:1007E000280E002070A90008AFF30080AFF300804E
:1007F00008B5064B1B68002B03D1054B1B68002B6B
:1008000002D0044800F01CF908BD00BF240E0020EF
:10081000280E002080A90008AFF30080AFF300800D
:1008200008B5074B1B68002B03D1064B1B68002B38
:1008300002D0054800F004F9024B01221A6008BDFD
:10084000240E0020280E002088A90008AFF30080A5
:1008500008B5074B1B68002B03D1064B1B68002B08
:1008600002DC054800F0ECF8024B00221A6008BDDB
:10087000240E0020280E002090A90008AFF300806D
:1008800008B5074B1B68002B03DD064B1B68002BCC
:1008900002D0054800F0D4F8024B01221A6008BDCE
:1008A000240E0020280E002098A90008AFF3008035
:1008B00008B5074B1B68002B03DD064B1B68002B9C
:1008C00002DC054800F0BCF8024B00221A6008BDAB
:1008D000240E0020280E0020A0A90008AFF30080FD
:1008E00008B5202383F31188094B1B68002B03DB19
:1008F000084B1B68002B02D0074800F0A1F8044BFE
:100900001B680133024A1360002383F3118808BD7A
:10091000240E0020280E0020A8A90008AFF30080B4
:1009200008B5202383F31188094B1B68002B03DDD6
:10093000084B1B68002B02D0074800F081F8044BDD
:100940001B68013B024A1360002383F3118808BD32
:10095000240E0020280E0020B0A90008AFF300806C
:1009600008B5064B1B68002B03DB054B1B68002BEF
:1009700002DC044800F064F808BD00BF240E00202B
:10098000280E0020B8A90008AFF30080AFF3008064
:1009900008B5064B1B68002B03D1054B1B68002BC9
:1009A00002DC044800F04CF808BD00BF240E002013
:1009B000280E0020C0A90008AFF30080AFF300802C
:1009C000034B40221A60024B024A5A60704700BF34
:1009D0002C0E0020340E0020AFF30080AFF3008017
:1009E00082B00190114B5B68114AD2681A600F4BBC
:1009F0005B68104A92695A600C4B5B68019A926A74
:100A00009A600A4B5B68019A92F820201A73074B90
:100A10005B681033054A5360044B5B68064A934297
:100A200002D3024B054A5A6002B070472C0E0020D8
:100A3000381200204812002034120020340E00200A
:100A400000B583B00190044A019B1360FFF7E0FCFE
:100A500003B05DF804FB00BF34120020AFF3008048
:100A6000074B074A5A60064B5B68054A1360044B04
:100A70004FF0FF329A60024B0022DA60704700BFED
:100A800038120020AFF30080AFF30080AFF3008096
:100A900000B587B00390029101920093FFF760FFC9
:100AA000039B002B05D0019B002B02D0029B002B47
:100AB00002D11D48FFF7C4FF039B009A1A61039BF4
:100AC000019ADA60194B1B68059307E0059B9B6848
:100AD000029AD31A0293059B1B680593059B9A689B
:100AE000029B9A42F2D3039B059A1A60039B1B68F0
:100AF0005A68039B5A60039B5B68059A039951608F
:100B0000059A52681A60039B029A9A60059B074AED
:100B1000934205D0059B9A68029BD21A059B9A6066
:100B200007B05DF804FB00BFD0A900083812002010
:100B300000B583B00190FFF713FF019B002B02D19A
:100B40001348FFF77DFF019BDB68002B02D11148A2
:100B5000FFF776FF019B1B680F4A934208D0019B69
:100B60001B68019A12689168019A92680A449A6017
:100B7000019B5B68019A12681A60019B1B68019ACD
:100B800052685A60019B0022DA6003B05DF804FBF2
:100B9000E0A90008F0A9000838120020AFF3008097
:100BA00084B00190019B1B680393039B1A68019B0F
:100BB0001A60019B1B68019A5A60039B184604B097
:100BC000704700BFAFF30080AFF30080AFF3008049
:100BD00082B00190019B5B68019A12681A60019BC8
:100BE0001B68019A52685A60019B184602B0704710
:100BF000084B084A5A60074B5B68064A1360054B6E
:100C000000229A60034B034A5A61024B5B69014A16
:100C10001361704748120020AFF30080AFF30080EB
:100C200000B585B00190FFF79BFE019B93F8203043
:100C3000002B04D0019B93F820300E2B02D11348D7
:100C4000FFF7FEFE019B002283F82020104B039348
:100C5000039B1B680393039B9A68019B9B689A42C2
:100C6000F6D2019B039A1A60039B5A68019B5A6053
:100C7000019B5B68039A01995160039A52681A605C
:100C8000019B184605B05DF804FB00BF10AA0008E0
:100C900048120020AFF30080AFF30080AFF3008074
:100CA00000B585B003468DF80730FFF771FE164B8F
:100CB0009B690393039B9DF8072083F82020039BE7
:100CC000142283F823201048FFF76AFF02460E4BD8
:100CD0009A610D4B9B69012283F820200398FFF74E
:100CE0007FFE6B46A3F16402039BDB699A4202D24A
:100CF0000648FFF7A5FE044B9B6918460399FFF7CA
:100D00002FFC05B05DF804FB4812002024AA00085F
:100D100000B585B00190019B0393202383F31188D4
:100D2000FFF7AEFD039B93F820300D2B2CD801A2CA
:100D300052F823F06D0D0008890D0008890D000898
:100D4000790D0008890D0008830D0008890D000841
:100D5000890D0008890D0008890D0008890D00081B
:100D6000890D0008890D0008830D0008FFF7A0FD1C
:100D7000002383F3118813E0039B9B6A9A68013276
:100D80009A600398FFF724FF039B4FF0FF329A62AB
:100D90000398FFF745FFFFF78BFD002383F31188CE
:100DA00005B05DF804FB00BFAFF30080AFF3008037
:100DB00000B589B0034600918DF80730FFF7E8FDD4
:100DC000009BB3F1FF3F15D0104B9B6903AA10465F
:100DD00000990F4AFFF75CFE9DF807301846FFF7B1
:100DE0005FFF069B002B04D003AB1846FFF7A0FE65
:100DF00005E004E09DF807301846FFF751FF034B6C
:100E00009B699B6A184609B05DF804FB48120020F4
:100E1000110D0008AFF30080AFF30080AFF3008046
:100E200000B585B001900091FFF7B2FD019B009ADB
:100E30009A62019B9A68154B9B699B689A4203D8FA
:100E40000198FFF7EDFE1DE0104B9B691846FFF778
:100E5000E7FE03900D4A019B9361019B012283F8F9
:100E600020200398FFF7BCFD6B46A3F16402039BAF
:100E7000DB699A4202D20648FFF7E2FD0198039926
:100E8000FFF76EFB05B05DF804FB00BF48120020C1
:100E900024AA0008AFF30080AFF30080AFF3008016
:100EA00000B583B0154B9B6901931448FFF778FE9A
:100EB0000246124B9A61114B9B69012283F8202054
:100EC000019B142283F823200198FFF7A9FE0198C3
:100ED000FFF786FD6B46A3F16402019BDB699A4232
:100EE00002D20748FFF7ACFD044B9B6918460199F5
:100EF000FFF736FB03B05DF804FB00BF481200208B
:100F000024AA0008AFF30080AFF30080AFF30080A5
:100F100000B583B0204B9B6900931F48FFF740FE4C
:100F200002461D4B9A611C4B9B69012283F82020CD
:100F3000009B002283F82020174B0193019B1B6824
:100F40000193019B9A68009B9B689A42F6D8009B8C
:100F5000019A1A60019B5A68009B5A60009B5B686B
:100F6000019A00995160019A52681A600098FFF73F
:100F700037FD6B46A3F16402009BDB699A4202D203
:100F80000648FFF75DFD044B9B6918460099FFF783
:100F9000E7FA03B05DF804FB4812002024AA000819
:100FA00008B5064B9B6993F82330002B02D1FFF75D
:100FB00077FF01E0FFF7ACFF08BD00BF481200203B
:100FC00084B00190019B1B680393039B1A68019BEB
:100FD0001A60039B184604B0704700BFAFF300804F
:100FE00082B001900091019B009A9A60019B0222BD
:100FF00083F82020019B002283F82120019B1422EA
:1010000083F82320019B009A5A64019B00221A64F2
:10101000019B0022DA63019B00225A62019B01229C
:1010200083F82220019B00229A61019B124A1A61D7
:10103000114B5A69019B5A61019B5B690E49019AE8
:101040004A610D4A52691A61019B03F12C02019B0E
:10105000DA62019B03F13002019B5A63019B5A6BD8
:10106000019B1A63019B03F14C02019BDA61019B16
:10107000184602B0704700BF48120020AFF300804E
:1010800084B00390029113468DF8073005E0039B6E
:101090005A1C03929DF807201A70039A029B9A42E9
:1010A000F5D304B0704700BFAFF30080AFF300800A
:1010B00000B587B00390029101920093039B0593C2
:1010C000FFF74EFC039B002B09D0029BB3F5AC7FCE
:1010D00005D3019B7F2B02D8009B002B02D10F4828
:1010E000FFF7AEFC029B643B039A1A44059BDA604F
:1010F000059BDB68009A1A64059BDB68089A5A64B2
:10110000059BDB68064A1A6605980199FFF768FF98
:101110000346184607B05DF804FB00BF40AA00086C
:1011200081050008AFF30080AFF30080AFF30080CB
:1011300000B589B00590049103920293059B4C334E
:1011400005981946FF22FFF79BFF059B03F14C0111
:10115000059A049B1344084619465522FFF790FF51
:10116000202383F31188FFF75BFB0A9B009305980C
:101170000499039A029BFFF79BFF079007980021B1
:10118000FFF74EFEFFF764FB002383F31188079BF4
:10119000184609B05DF804FBAFF30080AFF30080A0
:1011A00000B583B00190019B002B02D10948FFF7E5
:1011B00047FC202383F31188FFF732FB06200199B7
:1011C000FFF7F6FDFFF744FB002383F3118803B01C
:1011D0005DF804FB80AA0008AFF30080AFF3008045
:1011E00000B583B00190202383F31188FFF718FB2B
:1011F000094BDB68019AD31A0193019B002B03D0A2
:1012000006200199FFF7D4FDFFF722FB002383F3AB
:10121000118803B05DF804FB38120020AFF30080A2
:1012200008B5202383F31188FFF7FAFA074B1B68F0
:101230009A68064B9B699B689A4201D3FFF730FE80
:10124000FFF706FB002383F3118808BD4812002036
:1012500000B583B00190202383F31188FFF7E0FAF3
:10126000019800F005F803B05DF804FBAFF30080CF
:1012700000B585B00190184B9B690393039B019ABD
:101280009A6208E0039B2C331846FFF799FE034649
:101290001846FFF7C5FC039BDA6A039B2C339A427E
:1012A000F0D1039B93F8213003F00303002B09D105
:1012B000039B5B69039A12691A61039B1B69039A7A
:1012C00052695A610E20FFF7EBFC0448FFF7B8FBA8
:1012D00005B05DF804FB00BF4812002090AA00088A
:1012E00000B589B005900491039202930598049982
:1012F00000F00EFB0790079B002B01D100232DE08F
:10130000079B4C3307981946FF22FFF7B9FE079B4E
:1013100003F14C01079A049B1344084619465522D1
:10132000FFF7AEFE202383F31188FFF779FA0A9BBB
:10133000009307980499039A029BFFF7B9FE069061
:10134000069B012283F8212006980021FFF768FD03
:10135000FFF77EFA002383F31188069B184609B035
:101360005DF804FBAFF30080AFF30080AFF30080C3
:1013700084B001900091009B0393039B1B6803932F
:10138000039A009B9A4205D0039B9A68019B9B6835
:101390009A42F2D2019B039A1A60039B5A68019BFE
:1013A0005A60019B5B68039A01995160039A5268E5
:1013B0001A6004B0704700BFAFF30080AFF3008045
:1013C00084B00190019B1B680393039B1A68019BE7
:1013D0001A60019B1B68019A5A60039B184604B06F
:1013E000704700BFAFF30080AFF30080AFF3008021
:1013F00082B00190019B5B68019A12681A60019BA0
:101400001B68019A52685A60019B184602B07047E7
:1014100000B583B00190019B002B02D10748FFF774
:101420000FFB019A019B5A60019B5A68019B1A604D
:10143000019B00229A6003B05DF804FBE0AA00085B
:1014400000B583B00190202383F31188FFF7E8F9FA
:10145000019800F00DF8FFF7FBF9002383F31188E2
:1014600003B05DF804FB00BFAFF30080AFF3008072
:1014700000B585B001903C4B9B690293FFF788FA59
:10148000019B002B02D13948FFF7DAFA019B9B68D8
:10149000002B5BD0019B9B68039334E0029B9A680E
:1014A000039B9A60039B93F82030042B04D0052BF8
:1014B00011D0002B1AD02CE00398FFF799FF0246B9
:1014C000039B9B6A10461946FFF752FF039B9B6ADA
:1014D0009B68039317E00398FFF78AFF0246039B7C
:1014E0009B6A10461946FFF743FF0BE0039B01225E
:1014F00083F820200398FFF77BFF03461846FFF789
:101500008FFB00BF05E0039B9A68029B9B689A4291
:10151000C4D3019B02981946FFF72AFF029B019A48
:101520009A620420FFF7BCFB019B9A68029B9A42D7
:1015300002D00F48FFF784FA029B1A6C019B9A4273
:1015400003D00C48FFF77CFA0AE009E0019B029AFD
:101550009A60029B1A6C019BDA60029B019A1A64E2
:1015600005B05DF804FB00BF48120020F0AA000897
:1015700000AB000814AB0008AFF30080AFF30080AD
:1015800000B587B0314B9B690393202383F3118807
:10159000FFF746F9039B1B6C002B02D12C48FFF789
:1015A0004FFA039B1B6C9A68039B9A4202D029480E
:1015B000FFF746FA039B1B6C0293029BDA68039BBE
:1015C0001A64029B1A68029B9A4232D0039B5B6C9E
:1015D0000493039B1B6C059311E0059B1A68059B04
:1015E0009A4209D0059B1B689A68049B9A4203D9CA
:1015F000059B1B689B680493059BDB680593059B13
:10160000002BEAD1039B049A9A60029B1846FFF7CD
:10161000D7FE0190029B019A9A60019B1A6C029B73
:10162000DA60019B029A1A6401980021FFF7F8FB27
:1016300002E0029B00229A60FFF70AF9002383F37D
:101640001188029B184607B05DF804FB4812002081
:101650003CAB000850AB0008AFF30080AFF3008054
:1016600000B587B02D4B9B690393FFF791F9039B5E
:101670001B6C002B02D12A48FFF7E2F9039B1B6C7D
:101680009A68039B9A4202D02648FFF7D9F9039B38
:101690001B6C0293029BDA68039B1A64029B1A6814
:1016A000029B9A4231D0039B5B6C0493039B1B6C9F
:1016B000059311E0059B1A68059B9A4209D0059B8A
:1016C0001B689A68049B9A4203D9059B1B689B6818
:1016D0000493059BDB680593059B002BEAD1039BD4
:1016E000049A9A60029B1846FFF76AFE0190029BDB
:1016F000019A9A60019B1A6C029BDA60019B029A24
:101700001A640198FFF78CFA02E0029B00229A60AB
:10171000029B184607B05DF804FB00BF481200208A
:1017200064AB000878AB0008AFF30080AFF3008033
:1017300000B583B001900091FFF712F9019B002BD7
:1017400002D11648FFF77CF9019BDA6B009B1A4324
:10175000019BDA63019B93F82030082B06D1019B93
:10176000DA6B019B9B6A1340002B0DD1019B93F810
:101770002030092B0ED1019BDA6B019B9B6A1A402A
:10178000019B9B6A9A4205D10198FFF749FA0246EC
:101790000023936203B05DF804FB00BFE4AB0008D4
:1017A00000B585B001900091204B9B6902932023E6
:1017B00083F31188FFF734F8029BDA6B019B134027
:1017C0000393039B002B1FD1009B002B06D1FFF737
:1017D0003FF8002383F31188002322E0029B019A43
:1017E0009A6208200099FFF7E3FA0346002B06DA15
:1017F000FFF72EF8002383F31188002311E0029BEA
:10180000DA6B019B13400393029BDA6B039BDB4370
:101810001A40029BDA63FFF71BF8002383F3118859
:10182000039B184605B05DF804FB00BF481200207A
:10183000064B073323F007031A46054B1A60054B86
:1018400023F007031A46044B1A607047E41D00207A
:101850006412002000A0002068120020AFF3008076
:1018600000B585B00190202383F31188FEF7D8FFDF
:10187000019800F00DF80390FEF7EAFF002383F3D0
:101880001188039B184605B05DF804FBAFF3008098
:1018900000B585B00190FFF763F8019B073323F093
:1018A000070301930C4B1B681A460C4B1B68D31A99
:1018B0001A46019B9A4201D2002309E0074B1B689C
:1018C0000393064B1A68019B1344044A1360039B5D
:1018D000184605B05DF804FB681200206412002071
:1018E00008B5064B064A1A60044B00229A60034B67
:1018F0000022DA600348FFF78BFD08BD701200205C
:101900006118000880120020AFF30080AFF3008060
:1019100000B587B001900091019B002B01D1344BA1
:101920000193009B073323F007030093019B0833C7
:101930000593019B10331846FFF782FD33E0059BAA
:101940001B680493049B5A68009B9A4229D3049B0A
:101950005A68009B08339A4204D2049B1A68059B7C
:101960001A6016E0009B0833049A13440393049B07
:101970001A68039B1A60049B5A68009BD31AA3F150
:101980000802039B5A60059B039A1A60049B009A05
:101990005A60049B019A1A60FFF7F2FD049B08331A
:1019A00021E0049B0593059B1B68002BC7D1FFF723
:1019B000E7FD019B1B68002B14D0019B1B68009A5C
:1019C0000832104698470490049B002B0AD0049BD1
:1019D000019A1A60049B009A5A60049B083304938E
:1019E000049B00E00023184607B05DF804FB00BF2D
:1019F00070120020AFF30080AFF30080AFF30080DF
:101A000000B587B00190019B002B02D13948FFF748
:101A100017F8019B083B0493049B1B680393039BEB
:101A200008330593039B10331846FFF709FD049A0A
:101A3000059B9A420AD3059B5B680833059A1A44B2
:101A4000049B9A4202D92C48FEF7FAFF039B03F14C
:101A50000802059B9A4203D0049A059B9A423ED9FC
:101A6000059B1B68002B04D0059B1A68049B9A42B7
:101A700035D9059B1A68049B1A60059B049A1A6065
:101A8000049B5B680833049A1A44049B1B689A42BF
:101A90000ED1049B5A68049B1B685B68134403F1D6
:101AA0000802049B5A60049B1B681A68049B1A6016
:101AB000059B5B680833059A1A44049B9A420DD132
:101AC000059B5A68049B5B68134403F10802059B5D
:101AD0005A60049B1A68059B1A6004E003E0059BAA
:101AE0001B680593A3E7FFF74BFD00BF07B05DF848
:101AF00004FB00BF30AC000840AC0008AFF300802E
:101B000000B585B0039002910192039B002B02D097
:101B1000029B032B02D80748FEF792FF039B00228B
:101B20001A60039B029A5A60039B019A9A6005B05F
:101B30005DF804FB60AC0008AFF30080AFF30080F9
:101B400000B585B0039002910192039B002B02D057
:101B5000019B002B02D10B48FEF772FF0BE00398AC
:101B6000029900F065F8039B5B68029A13440293A4
:101B7000019B013B0193019B002BF0D105B05DF867
:101B800004FB00BF70AC0008AFF30080AFF300802F
:101B900000B585B00190FEF7E3FE019B002B02D15A
:101BA0000F48FEF74DFF019B1B680393039B002B1F
:101BB00005D0019B1B681A68019B1A600AE0019B13
:101BC0009B68002B06D0019B9B68019A52681046C7
:101BD00098470390039B184605B05DF804FB00BFCF
:101BE00084AC0008AFF30080AFF30080AFF3008057
:101BF00000B585B001900091009B0393FEF7B0FE05
:101C0000019B002B02D0009B002B02D10648FEF75F
:101C100017FF019B1A68039B1A60019B039A1A60C5
:101C200005B05DF804FB00BF98AC0008AFF300807E
:101C300000B583B001900091202383F31188FEF753
:101C4000EFFD01980099FFF7D3FFFEF701FE002397
:101C500083F3118803B05DF804FB00BFAFF300808D
:101C600008B500F0CDFA064800F052FF00F010F879
:101C700000F036F800F04CF801F0C2FF08BD00BFDC
:101C800040B10008AFF30080AFF30080AFF30080F5
:101C900008B500F0A5FC08BDAFF30080AFF30080ED
:101CA00000B583B00190019B01221A70019B0022B4
:101CB0005A60019B00229A60019B0022DA60019B1E
:101CC00000221A61019B00225A61019B18331846B9
:101CD000FFF79EFB03B05DF804FB00BFAFF300808D
:101CE00008B500F0E5FE08BDAFF30080AFF300805B
:101CF00082B00190019B01221A70019B00225A6060
:101D000002B07047AFF30080AFF30080AFF3008004
:101D100008B500F0A5FF08BDAFF30080AFF3008069
:101D200082B00190019B01221A70019B00225A602F
:101D300002B07047AFF30080AFF30080AFF30080D4
:101D400000B583B001900091019B002B02D0009B55
:101D5000002B02D11348FEF773FE202383F3118872
:101D6000FEF75EFD019B1B78012B06D0019B1B78C3
:101D7000022B02D00C48FEF763FE019B009A5A60CA
:101D8000009B9A88019B1A81019800F079FF019BC2
:101D900002221A70FEF75CFD002383F3118803B062
:101DA0005DF804FBB0AC0008C0AC0008AFF30080E5
:101DB00000B583B0FEF794FD0C4B1B6803F00F03D6
:101DC00001930A4A019B5360094B1B68002B06D004
:101DD000074B1B68064A5268104601999847FEF760
:101DE0009FFDFEF765FB03B05DF804FB00000240B9
:101DF00094120020AFF30080AFF30080AFF30080B7
:101E000000B583B0FEF76CFD0D4B1B681B0903F09A
:101E10000F0301930A4A019B1B015360094B9B6806
:101E2000002B06D0074B9B68064AD26810460199E2
:101E30009847FEF775FDFEF73BFB03B05DF804FB2A
:101E40000000024094120020AFF30080AFF3008046
:101E500000B583B0FEF744FD0D4B1B681B0A03F071
:101E60000F0301930A4A019B1B025360094B1B6934
:101E7000002B06D0074B1B69064A52691046019990
:101E80009847FEF74DFDFEF713FB03B05DF804FB2A
:101E90000000024094120020AFF30080AFF30080F6
:101EA00000B583B0FEF71CFD0D4B1B681B0B03F048
:101EB0000F0301930A4A019B1B035360094B9B6963
:101EC000002B06D0074B9B69064AD2691046019940
:101ED0009847FEF725FDFEF7EBFA03B05DF804FB2B
:101EE0000000024094120020AFF30080AFF30080A6
:101EF00000B583B0FEF7F4FC0D4B1B681B0C03F020
:101F00000F0301930A4A019B1B045360094B1B6A90
:101F1000002B06D0074B1B6A064A526A10460199ED
:101F20009847FEF7FDFCFEF7C3FA03B05DF804FB2B
:101F30000000024094120020AFF30080AFF3008055
:101F400000B583B0FEF7CCFC0D4B1B681B0D03F0F6
:101F50000F0301930A4A019B1B055360094B9B6ABF
:101F6000002B06D0074B9B6A064AD26A104601999D
:101F70009847FEF7D5FCFEF79BFA03B05DF804FB2B
:101F80000000024094120020AFF30080AFF3008005
:101F900000B583B0FEF7A4FC0D4B1B681B0E03F0CD
:101FA0000F0301930A4A019B1B065360094B1B6BED
:101FB000002B06D0074B1B6B064A526B104601994B
:101FC0009847FEF7ADFCFEF773FA03B05DF804FB2B
:101FD0000000024094120020AFF30080AFF30080B5
:101FE00000B583B0FEF77CFC0C4B1B6803F00F03BD
:101FF00001930A4A019B5360094B9B6B002B06D04F
:10200000074B9B6B064AD26B104601999847FEF727
:1020100087FCFEF74DFA03B05DF804FB00040240B4
:1020200094120020AFF30080AFF30080AFF3008084
:1020300000B583B0FEF754FC0D4B1B681B0903F081
:102040000F0301930A4A019B1B015360094B1B6C50
:10205000002B06D0074B1B6C064A526C10460199A8
:102060009847FEF75DFCFEF723FA03B05DF804FB2A
:102070000004024094120020AFF30080AFF3008010
:1020800000B583B0FEF72CFC0D4B1B681B0A03F058
:102090000F0301930A4A019B1B025360094B9B6C7F
:1020A000002B06D0074B9B6C064AD26C1046019958
:1020B0009847FEF735FCFEF7FBF903B05DF804FB2B
:1020C0000004024094120020AFF30080AFF30080C0
:1020D00000B583B0FEF704FC0D4B1B681B0B03F02F
:1020E0000F0301930A4A019B1B035360094B1B6DAD
:1020F000002B06D0074B1B6D064A526D1046019906
:102100009847FEF70DFCFEF7D3F903B05DF804FB2A
:102110000004024094120020AFF30080AFF300806F
:1021200000B583B0FEF7DCFB0D4B1B681B0C03F006
:102130000F0301930A4A019B1B045360094B9B6DDB
:10214000002B06D0074B9B6D064AD26D10460199B5
:102150009847FEF7E5FBFEF7ABF903B05DF804FB2B
:102160000004024094120020AFF30080AFF300801F
:1021700082B0124B00221A600023019311E0104933
:10218000019A13465B0013449B000B441B6800221A
:102190001A600C4A019B002142F83310019B013365
:1021A0000193019B0B2BEADD074B4FF0FF325A6086
:1021B000064B4FF0FF325A6002B070479012002079
:1021C000B0B0000894120020000002400004024059
:1021D000094A094B1B6843F480731360074B1B6A61
:1021E00003F44073002B06D0044B4FF480321A6284
:1021F000024B00221A62704700700040001002403B
:1022000008B5234B1B69224B4FF0FF321A61204B5C
:1022100000221A611E4BDB681D4B4FF0FF32DA6063
:102220001B4B0022DA601A4B9B6A194B4FF0FF32AE
:102230009A62174B00229A62164B174A5A60154B46
:1022400000229A60134B07221A60144A134BDB6872
:1022500043F08073D360124A114B1B6843F00103B3
:1022600013600B4A0A4BDB6943F08053D361FFF7DD
:10227000AFFFFFF77DFF064A054B9B6943F0010363
:102280009361084A074B1B6843F02003136008BDA5
:102290000010024010E000E03F190100F0ED00E006
:1022A000001000E000000140AFF30080AFF30080B9
:1022B000284A284B1B6843F00103136000BF254BDD
:1022C0001B6803F00203002BF9D0224A214B1B6844
:1022D00003F0F90313601F4B00225A6000BF1D4B2F
:1022E0005B6803F00C03002BF9D11A4A194B1B68E9
:1022F00043F4A023136000BF164B1B6803F40033A4
:10230000002BF9D0134B144A5A60124B42F20212BE
:10231000DA62104B30221A630E4A0E4B1B6843F0F0
:102320008073136000BF0B4B1B6803F00073002B1E
:10233000F9D00A4B12221A60064A064B5B6843F03A
:102340000203536000BF034B5B6803F00C03082BD0
:10235000F9D170470010024000241D000020024007
:1023600082B00190019BDB6A9B6803F00403002BA1
:102370000FD0019BDB6A019AD26A926842F0100288
:102380009A6000BF019BDB6A9B6803F01003002B7F
:10239000F8D102B0704700BFAFF30080AFF3008008
:1023A00000B587B001900091019B1B69002B00F0E4
:1023B000F280009B03F01003002B3BD0019B1B6BB2
:1023C0001B685B68002B35D0019800F029F9019B50
:1023D0001B699B68002B0FD0019B05221A70019B83
:1023E0001B699B68019801219847019B1B78052B6D
:1023F00002D1019B02221A70019B00221A61202344
:1024000083F31188FEF73CFA019B5B69002B0CD02B
:10241000019B5B690593019B00225A61059B4FF06C
:10242000FF329A620598FEF7FBFBFEF741FA0023A4
:1024300083F31188009B03F08003002B35D00198B3
:1024400000F0EEF8019B1B699B68002B0FD0019BED
:1024500005221A70019B1B699B680198022198470D
:10246000019B1B78052B02D1019B02221A70019B54
:1024700000221A61202383F31188FEF701FA019BE1
:102480005B69002B0CD0019B5B690493019B0022CC
:102490005A61049B4FF0FF329A620498FEF7C0FB2A
:1024A000FEF706FA002383F31188009B03F4807380
:1024B000002B35D0019800F0B3F8019B1B699B6895
:1024C000002B0FD0019B05221A70019B1B699B6892
:1024D000019803219847019B1B78052B02D1019B92
:1024E00002221A70019B00221A61202383F31188B3
:1024F000FEF7C6F9019B5B69002B0CD0019B5B6961
:102500000393019B00225A61039B4FF0FF329A62B2
:102510000398FEF785FBFEF7CBF9002383F31188C0
:10252000009B03F40073002B35D0019800F078F87D
:10253000019B1B699B68002B0FD0019B05221A7021
:10254000019B1B699B68019804219847019B1B789C
:10255000052B02D1019B02221A70019B00221A61F5
:10256000202383F31188FEF78BF9019B5B69002B15
:102570000CD0019B5B690293019B00225A61029B74
:102580004FF0FF329A620298FEF74AFBFEF790F98D
:10259000002383F3118807B05DF804FBAFF30080DC
:1025A00000B583B0FEF79CF94FF0A0431B68019380
:1025B0004FF0A042019B136005480199FFF7F0FE20
:1025C000FEF7AEF9FDF774FF03B05DF804FB00BF42
:1025D000F4120020AFF30080AFF30080AFF300806F
:1025E00008B50B48FFF75CFB094B0A4A9A62084B97
:1025F0004FF0A042DA62064B074A1A63044B42F2DC
:102600008A525A6312205021FDF7CAFF08BD00BF4D
:10261000F412002000030050B0B00008AFF30080B7
:1026200000B583B00190019B1B6B1B68019A126B74
:102630001268126822F00F021A60019B1B6B5B6824
:10264000019A126B127A11460F228A401A60019881
:10265000FFF786FE03B05DF804FB00BFAFF3008018
:1026600008B5FEF73DF9074B01225A61064B5B683E
:102670005B68054800219847FEF752F9FDF718FFFF
:1026800008BD00BF000401402C130020AFF3008000
:1026900008B5FEF725F9074B02225A61064B5B6825
:1026A000DB68054801219847FEF73AF9FDF700FF7E
:1026B00008BD00BF000401402C130020AFF30080D0
:1026C00008B5FEF70DF9074B04225A61064B5B680B
:1026D0005B69054802219847FEF722F9FDF7E8FEFD
:1026E00008BD00BF000401402C130020AFF30080A0
:1026F00008B5FEF7F5F8074B08225A61064B5B68F0
:10270000DB69054803219847FEF70AF9FDF7D0FE7B
:1027100008BD00BF000401402C130020AFF300806F
:1027200008B5FEF7DDF8074B10225A61064B5B68CF
:102730005B6A054804219847FEF7F2F8FDF7B8FEFA
:1027400008BD00BF000401402C130020AFF300803F
:1027500000B583B0FEF7C4F8224B5B6903F47873CD
:102760000193204A019B5361019B03F02003002B3E
:1027700005D01D4B5B68DB6A1B4805219847019B10
:1027800003F04003002B05D0174B5B685B6B1648CA
:1027900006219847019B03F08003002B05D0124BC4
:1027A0005B68DB6B104807219847019B03F480733B
:1027B000002B05D00C4B5B685B6C0B4808219847DD
:1027C000019B03F40073002B05D0074B5B68DB6CA7
:1027D000054809219847FEF7A3F8FDF769FE03B005
:1027E0005DF804FB000401402C130020AFF30080CF
:1027F00000B583B0FEF774F8284B5B6903F47C43A3
:102800000193264A019B5361019B03F48063002BD3
:1028100005D0234B5B685B6D21480A219847019BDB
:1028200003F40063002B05D01D4B5B68DB6D1C4877
:102830000B219847019B03F48053002B05D0184BC4
:102840005B685B6E16480C219847019B03F40053AC
:10285000002B05D0124B5B68DB6E11480D219847A9
:10286000019B03F48043002B05D00D4B5B685B6F2D
:102870000B480E219847019B03F40043002B05D021
:10288000074B5B68DB6F06480F219847FEF748F857
:10289000FDF70EFE03B05DF804FB00BF000401402D
:1028A0002C130020AFF30080AFF30080AFF3008063
:1028B00008B5FEF715F8084B4FF480325A61074B04
:1028C0005B68D3F88430054810219847FEF728F854
:1028D000FDF7EEFD08BD00BF000401402C130020F1
:1028E00008B5FDF7FDFF084B4FF400325A61074B66
:1028F0005B68D3F88C30054811219847FEF710F833
:10290000FDF7D6FD08BD00BF000401402C130020D8
:1029100008B5FDF7E5FF084B4FF480225A61074BDD
:102920005B68D3F89430054812219847FDF7F8FF0B
:10293000FDF7BEFD08BD00BF000401402C130020C0
:1029400008B5FDF7CDFF084B4FF400225A61074B45
:102950005B68D3F89C30054813219847FDF7E0FFEA
:10296000FDF7A6FD08BD00BF000401402C130020A8
:1029700008B5FDF7B5FF084B4FF480125A61074BBD
:102980005B68D3F8A430054814219847FDF7C8FFC9
:10299000FDF78EFD08BD00BF000401402C13002090
:1029A00000B583B0FDF79CFF194B5A69194B1340D2
:1029B0000193174A019B5361019B03F40013002B01
:1029C00006D0154B5B68D3F8AC30134815219847F7
:1029D000019B03F48003002B06D00F4B5B68D3F8F8
:1029E000B4300D4816219847019B03F00053002B8B
:1029F00006D0094B5B68D3F8EC3007481D21984797
:102A0000FDF78EFFFDF754FD03B05DF804FB00BF3A
:102A100000040140000060202C130020AFF3008070
:102A200000B583B0FDF75CFF1C4B5B6903F04043CE
:102A300001931A4A019B5361019B03F08043002BD1
:102A400006D0174B5B68D3F8F43015481E21984721
:102A5000019B002B06DA124B5B68D3F8FC30104860
:102A60001F2198470D4B5B6B03F0010301930B4A49
:102A7000019B5363019B03F00103002B06D0084B1D
:102A80005B68D3F80431064820219847FDF748FFDA
:102A9000FDF70EFD03B05DF804FB00BF000401402C
:102AA0002C130020AFF30080AFF30080AFF3008061
:102AB00008B50248FFF71CF908BD00BF2C13002021
:102AC00082B001900091009B5A68019B5A60009B64
:102AD0009A68019B9A60009BDA68019BDA60009B10
:102AE0001A69019B5A61009B5A69019B1A62009BFB
:102AF0009A69019B5A62009B1A68019B1A6002B096
:102B0000704700BFAFF30080AFF30080AFF30080E9
:102B100000B583B00190164A154B5B6943F4FC0382
:102B20005361019B4FF090401946FFF7C9FF019B8D
:102B30001C3310481946FFF7C3FF019B38330E487A
:102B40001946FFF7BDFF019B54330C481946FFF7A8
:102B5000B7FF019B70330A481946FFF7B1FF019B8D
:102B60008C3308481946FFF7ABFF03B05DF804FB50
:102B7000001002400004004800080048000C004813
:102B80000010004800140048AFF30080AFF300804D
:102B900008B5FDF7A5FE074B6FF001021A61064B61
:102BA0005B689B6804489847FDF7BAFEFDF780FC18
:102BB00008BD00BF002C014034130020AFF300809B
:102BC00000B583B0FDF78CFE214B1B699AB2204BF8
:102BD000DB689BB213409BB2DBB2ADF806301C4AF7
:102BE000BDF80630DB431361BDF8063003F0020385
:102BF000002B04D0174B5B681B6916489847BDF83B
:102C0000063003F00403002B04D0124B5B689B6971
:102C100010489847BDF8063003F00803002B04D095
:102C20000C4B5B681B6A0B489847BDF8063003F0F5
:102C30001003002B04D0074B5B689B6A054898473C
:102C4000FDF76EFEFDF734FC03B05DF804FB00BF3A
:102C5000002C014034130020AFF30080AFF300805C
:102C600008B50348FFF75CF8014B024A1A6108BD3A
:102C700034130020002C0140AFF30080AFF300803C
:102C800000B585B00190019B1B78012B28D1019BD9
:102C90007B4A934219D17B4A7A4B9B6943F4006388
:102CA0009361784A774BDB6843F40073D360754BCC
:102CB0000022DA6019207021FDF772FC1B207021C0
:102CC000FDF76EFC019B704ADA60019B1B6946F6BA
:102CD00068029A61019B1B6946F66802DA6123E08B
:102CE000019B1B6900221A60019B1B69019A5268B3
:102CF000126B22F0FF02DA60019B1B6900221A614D
:102D0000019B1B6900225A63019B1B6900229A6385
:102D1000019B1B690022DA63019B1B6900221A6474
:102D2000019B1B6900225A62019BDA68019B5B6868
:102D30001B68B2FBF3F3013B0293029BB3F5803FA8
:102D40000AD2029B0133019A5268126802FB03F215
:102D5000019BDB689A4202D04C48FDF771FE019B53
:102D60001B69029A92B29A62019B1B69019A1289AD
:102D7000013A92B2DA62019B1B69019A5268D26AE7
:102D80005A600023ADF80E30019B5B68DB6803F0EE
:102D90000F03012B07D0022B0BD1BDF80E3043F0EF
:102DA0000203ADF80E30BDF80E3043F00103ADF86C
:102DB0000E30019B5B685B6903F00F03012B07D0AA
:102DC000022B0BD1BDF80E3043F02003ADF80E30CE
:102DD000BDF80E3043F01003ADF80E30019B5B6878
:102DE000DB6903F00F03012B07D0022B0BD1BDF8D9
:102DF0000E3043F40073ADF80E30BDF80E3043F4DE
:102E00008073ADF80E30019B5B685B6A03F00F03C3
:102E1000012B07D0022B0BD1BDF80E3043F4005329
:102E2000ADF80E30BDF80E3043F48053ADF80E30DF
:102E3000019B1B69BDF80E201A62019B1B690122D0
:102E40005A61019B1B69019A1269D268019949680C
:102E50008968002914BF01210021C9B20A43DA6040
:102E6000019B1B6900221A61019B1B694FF4004200
:102E70005A64019B1B6985221A6005B05DF804FB4A
:102E800034130020001002400051250260AD0008FC
:102E900084B001900B468DF803301346ADF8003036
:102EA000019B19699DF80330BDF800200C339B008D
:102EB0000B445A60019B5A689DF803300133DB00D4
:102EC00013449B68002B21D0019B1B69DB68039393
:102ED0009DF80330022202FA03F31A46039B1340C3
:102EE000002B13D1019B1B699DF80320022101FADD
:102EF00002F21146039A0A43DA60019B1B699DF8AE
:102F00000320022101FA02F2D2431A6104B0704791
:102F100082B001900B468DF80330019B1A699DF831
:102F200003300C339B00134400225A60019B1B6941
:102F3000019A1269D2689DF80310022000FA01F18B
:102F4000C9430A40DA6002B0704700BFAFF30080A7
:102F500082B0044B0193019B08331B68DBB2184617
:102F600002B07047E8F7FF1FAFF30080AFF30080B7
:102F700000B585B001900B468DF80330202383F314
:102F80001188FDF77DFC9DF80320019B043253F866
:102F9000223003939DF80320019B0432002143F863
:102FA0002210039B5B7FC3F30603DBB2002B1FDD04
:102FB000039B5B7FC3F30603DBB27F3303F07F0326
:102FC000D9B2039A537F61F306035377039BD3F877
:102FD000193003F10802039BC3F81920019B0C333D
:102FE0001846039900F05CFA039B03221A710CE067
:102FF000039B02221A71039BD3F80530002B04D0E7
:10300000039BD3F8053003989847019800F0C0FA65
:10301000FDF74EFC002383F3118805B05DF804FB37
:1030200000B585B001900B468DF80330202383F363
:103030001188FDF725FC9DF80320019B043253F80D
:10304000223003939DF80320019B0432002143F8B2
:103050002210039B002B00D1FEE7019B0C33184686
:10306000039900F01DFA039B03221A71019800F0E6
:103070008FFAFDF71DFC002383F3118805B05DF87E
:1030800004FB00BFAFF30080AFF30080AFF300801C
:1030900000B585B001900B468DF80330202383F3F3
:1030A0001188FDF7EDFB9DF80320019B043253F8D6
:1030B000223003939DF80320019B0432002143F842
:1030C0002210039B002B00D1FEE7039B05221A71FF
:1030D000039BD3F80530002B04D0039BD3F80530B5
:1030E00003989847019800F053FAFDF7E1FB00239D
:1030F00083F3118805B05DF804FB00BFAFF30080D7
:1031000000B58BB00190202383F31188FDF7B8FB45
:1031100003AB0198194600F07BFC9DF81130019A31
:1031200006339B0013445B680893089B002B05D172
:10313000FDF7BEFB002383F31188FEE7089B1B7994
:10314000022B2ED1089B04221A71089BD3F815205C
:10315000089BC3F81920039BC3F31C03DB119AB22D
:10316000089BA3F81120089BB3F813309BB2082BDF
:1031700012D9089BB3F813309BB2013B002B00DA45
:103180000733DB10DBB203F07F03D9B2089A537F19
:1031900061F30603537704E0089A537F6FF3060345
:1031A0005377089B1B79042B73D1039BC3F31C0338
:1031B000DB118DF81F30089BB3F811309BB28DF8EE
:1031C0001E309DF81F209DF81E309A4205D0FDF755
:1031D0006FFB002383F3118860E0039BC3F31C03A0
:1031E000DBB203F07F038DF81D30089B5B7FC3F3D8
:1031F0000603DBB21A469DF81D30934208D0089BA7
:1032000002221A71FDF754FB002383F3118845E075
:10321000002309930EE0089BD3F81930591C089A33
:10322000C2F8191005A9099A0A4412781A70099B64
:10323000013309939DF81030C3F30303DBB21A4640
:10324000099B9A42E7D8089B5B7FC3F30603DBB276
:10325000002B0EDD089B5B7FC3F30603DBB27F33DD
:1032600003F07F03D9B2089A537F61F306035377C3
:103270000FE0089BD3F80530002B0AD0089B0122F1
:103280001A71089BD3F8053008989847089B0222CA
:103290001A71FDF70DFB002383F311880BB05DF865
:1032A00004FB00BFAFF30080AFF30080AFF30080FA
:1032B00008B500F015FB08BDAFF30080AFF3008048
:1032C00000B585B00190019B01221A70019B00227C
:1032D0005A65019B0C33184600F0DAF8002303937B
:1032E00008E0019B039A0432002143F82210039B5B
:1032F00001330393039B022BF3DD0023039309E0C7
:10330000019A039B06339B00134400225A60039BDF
:1033100001330393039B0D2BF2DD05B05DF804FB35
:1033200000B583B001900091019B002B05D1009B5B
:10333000002B02D11648FDF783FB202383F311886D
:10334000FDF76EFA019B1B78012B02D01148FDF7A7
:1033500077FB019B1B78012B08D1019B009A5A65D2
:10336000019800F0CDFA019B02221A70019B052200
:103370001A70FDF76DFA002383F3118801E000F065
:103380007FF8019B1B78042BF9D003B05DF804FB98
:1033900080AD000890AD0008AFF30080AFF300806F
:1033A00000B585B0039002910192029B01221A712F
:1033B0001C4BDA68019B1A44029BC3F80D20029B48
:1033C000B3F813309BB2082B12D9029BB3F8133019
:1033D0009BB2013B002B00DA0733DB10DBB203F0BA
:1033E0007F03D9B2029A537F61F30603537704E057
:1033F000029A537F6FF306035377029BD3F815208D
:10340000029BC3F81920039B0C331846029900F065
:1034100047F8029B03221A71039800F0B9F805B02F
:103420005DF804FB38120020AFF30080AFF300809A
:1034300000B587B0039002910192202383F3118895
:10344000FDF7EEF9029BB3F811309BB2DB01194690
:10345000019B9BB2DA010DF11703039800F060FBAA
:103460009DF81730039A06339B001344029A5A6062
:10347000FDF7EEF9002383F3118807B05DF804FB34
:10348000704700BFAFF30080AFF30080AFF3008060
:1034900082B00190019B019A1A6002B0704700BF90
:1034A00000B585B001900091019B0393019B002B17
:1034B00002D0009B002B02D10F48FDF7C1FA0BE0B0
:1034C000039BD3F80D20009BD3F80D309A4200D90E
:1034D00007E0039B1B680393039B1A68019B9A42B6
:1034E000EED1039B1A68009B1A60039B009A1A6036
:1034F00005B05DF804FB00BFD0AD0008AFF300805D
:1035000000B585B00190019B002B02D10B48FDF75F
:1035100097FA019B1A68019B9A4202D10848FDF76D
:103520008FFA019B1B680393039B1A68019B1A6027
:10353000039B184605B05DF804FB00BF10AE000801
:1035400024AE0008AFF30080AFF30080AFF300803B
:1035500084B00190019BD3F80D200A4BDB68D31A8D
:103560000393039B002B02DB039B402B01DD3F23D6
:1035700004E0039BDBB203F03F03DBB2184604B068
:10358000704700BF38120020AFF30080AFF3008017
:1035900000B589B00190019B03F10C02019BDB682F
:1035A0009A4201D1002370E0019800F0E9F9034646
:1035B00083F00103DBB2002B01D0002365E0019B07
:1035C0001B69002B01D000235FE0019B0C331846E0
:1035D000FFF796FF07900798FFF7BAFF0346DA0553
:1035E000079BB3F811309BB2DB011A43079B5B7F4B
:1035F000C3F30603DBB203F07F03134323F06042FF
:10360000039B62F31C030393079B5B7FC3F30603D7
:10361000DBB2002B07DD9DF81030082262F30303B4
:103620008DF8103016E0079BD3F81530079AB2F8E2
:10363000132092B213441A46079BD3F81930D31AB9
:10364000DBB203F00F03DAB29DF8103062F303032C
:103650008DF81030079BD3F819301B680593079B32
:10366000D3F819305B68069303AB0198194600F054
:1036700097F99DF811301A46019B0432079943F8D7
:103680002210079B04221A710123184609B05DF825
:1036900004FB00BFAFF30080AFF30080AFF3008006
:1036A00000B585B00190019BDB6D0393039B9B6884
:1036B0000293039B2A4A9A60029B03F00203002BA9
:1036C00003D001980021FFF753FC029B03F4007321
:1036D000002B03D001980121FFF74AFC029B03F461
:1036E0000033002B03D001980221FFF741FC029B1D
:1036F00003F00403002B03D001980021FFF790FC96
:10370000029B03F48063002B03D001980121FFF793
:1037100087FC029B03F48023002B03D00198022135
:10372000FFF77EFC029B03F00803002B03D00198F7
:103730000021FFF7ADFC029B03F40063002B03D0D4
:1037400001980121FFF7A4FC029B03F40023002B46
:1037500003D001980221FFF79BFC05B05DF804FB44
:1037600001010100AFF30080AFF30080AFF30080F0
:1037700000B585B00190019BDB6DDB680393039B73
:1037800003F00303002B0AD0019BDB6D019AD26D7D
:10379000526922F002025A610198FFF7B1FC039BC3
:1037A00003F01003002B03D0019BDB6D1022DA60C5
:1037B00005B05DF804FB00BFAFF30080AFF30080FD
:1037C00084B00190019BDB6D1B690393039B03F0A5
:1037D0000303002B07D0019BDB6D019AD26D526968
:1037E00022F010025A61039B03F01003002B03D058
:1037F000019BDB6D10221A6104B07047AFF30080AB
:1038000086B00190019BDB6D5B680593019BDB6DCE
:103810001C225A60059B03F00403002B18D0019B67
:10382000DB6D9B690493019BDB6D019AD26D9269FC
:1038300022F070029A61049B03F007030393049B38
:1038400003F07003002B03D0039B43F008030393A2
:1038500006B07047AFF30080AFF30080AFF3008095
:1038600008B5FDF73DF80448FFF71AFFFDF758F8D3
:10387000FCF71EFE08BD00BF48130020AFF3008018
:1038800008B5FDF72DF80448FFF772FFFDF748F87B
:10389000FCF70EFE08BD00BF48130020AFF3008008
:1038A00008B5FDF71DF80448FFF78AFFFDF738F863
:1038B000FCF7FEFD08BD00BF48130020AFF30080F9
:1038C00008B5FDF70DF80448FFF79AFFFDF728F853
:1038D000FCF7EEFD08BD00BF48130020AFF30080E9
:1038E00008B5034B034ADA650148FFF7E9FC08BD58
:1038F0004813002000640040AFF30080AFF3008065
:1039000000B583B001901320B021FCF749FE1420CC
:10391000B021FCF745FE1520B021FCF741FE162032
:10392000B021FCF73DFE124A114BDB6943F00073F6
:10393000D361019B02221A70019BDB6D01221A6088
:1039400000BF019BDB6D5B6803F00103002BF8D027
:10395000019BDB6D074ADA61019BDB6D90221A60E7
:10396000019BDB6D044A5A6103B05DF804FB00BFA4
:1039700000100240030024005B8F0100AFF30080C1
:1039800082B00190019BDB6D9B6803F0E053B3F1C3
:10399000E05F0CBF01230023DBB2184602B0704782
:1039A00084B001900091019BDB6D0393009B00228A
:1039B0005A71009B5B7918331B01039A13440293DD
:1039C000009B1B68C3F31C03DB0043F00402029B53
:1039D0001A60009B1B79C3F30303DBB21A46029BF8
:1039E0005A60009B9A68029B9A60009BDA68029B6F
:1039F000DA60029B1B6843F00102029B1A6004B06C
:103A0000704700BFAFF30080AFF30080AFF30080DA
:103A100084B001900091019BDB6D0393039BDB68F5
:103A200003F00303002B37D0039BD3F8B031DB083E
:103A300023F06041009A136861F31C031360039B39
:103A4000D3F8B431DBB203F00F03D9B2009A137983
:103A500061F303031371039BD3F8B821009B9A60B1
:103A6000039BD3F8BC21009BDA60039BD3F8B431ED
:103A70001B0ADAB2009B5A71039B2022DA60039B77
:103A8000DB6803F00303002B43D1039B5B6943F026
:103A90000202039B5A613CE0039B1B6903F0030392
:103AA000002B36D0039BD3F8C031DB0823F06041F4
:103AB000009A136861F31C031360039BD3F8C431AD
:103AC000DBB203F00F03D9B2009A137961F3030359
:103AD0001371039BD3F8C821009B9A60039BD3F812
:103AE000CC21009BDA60039BD3F8C4311B0ADAB205
:103AF000009B5A71039B20221A61039B1B6903F0F0
:103B00000303002B05D1039B5B6943F01002039B69
:103B10005A6104B0704700BFAFF30080AFF300807C
:103B200088B00390029101920093039BDB6D079391
:103B30002C4B1B681B2B50D82A4B1B684833DB00CF
:103B4000079A13440693274B1B681A460123934098
:103B50000593079BD3F8003243F00102079BC3F89B
:103B60000022079BD3F81C22059BDB431A40079BCE
:103B7000C3F81C22079BD3F80422059BDB431A40A1
:103B8000079BC3F80422079BD3F80C22059B1A431A
:103B9000079BC3F80C22029BDA00069B1A60019B6C
:103BA000DA00069B5A60079BD3F81C22059B1A4338
:103BB000079BC3F81C22079BD3F8003223F00102B5
:103BC000079BC3F80022074B1B685A1C05490A6073
:103BD000DAB2009B1A70012300E00023184608B0F7
:103BE000704700BFA8130020AFF30080AFF3008040
:103BF00008B5FEF75DFB08BDAFF30080AFF30080B2
:103C0000704700BFAFF30080AFF30080AFF30080D8
:103C100008B5FCF7FDFB08BDAFF30080AFF30080F3
:103C200008B500F0CDF808BDAFF30080AFF3008019
:103C300082B00190019B01221A70019B00225A80E0
:103C4000019B00225A6002B0704700BFAFF30080B2
:103C500000B583B001900091019B002B02D0009B26
:103C6000002B02D11148FCF7EBFE202383F31188CF
:103C7000FCF7D6FD019B1B78012B06D0019B1B781E
:103C8000022B02D00A48FCF7DBFE019B009A5A6027
:103C9000019800F0A5F8019B02221A70FCF7D8FDEC
:103CA000002383F3118803B05DF804FB40AE0008E5
:103CB00050AE0008AFF30080AFF30080AFF3008098
:103CC00000B583B00190019B002B02D10E48FCF798
:103CD000B7FE202383F31188FCF7A2FD019B1B781C
:103CE000022B02D00948FCF7ABFE019800F0E8F87F
:103CF000019B03221A70FCF7ABFD002383F31188AC
:103D000003B05DF804FB00BF7CAE00088CAE000879
:103D100000B585B00190202383F31188FCF780FD66
:103D2000019800F015F80346ADF80E30FCF790FD51
:103D3000002383F31188BDF80E301BB2184605B07E
:103D40005DF804FBAFF30080AFF30080AFF30080B9
:103D500000B585B00190FCF703FE019B002B02D15A
:103D60001248FCF76DFE019B1B78022B06D0019BCD
:103D70001B78032B02D00E48FCF762FE019B9B6868
:103D80005B6AADF80E30019B5B88BDF80E20D31A3C
:103D90009BB2ADF80C30019BBDF80E205A80BDF8E7
:103DA0000C301BB2184605B05DF804FBC0AE00082D
:103DB000D0AE0008AFF30080AFF30080AFF3008017
:103DC00008B50348FFF734FF014B024A9A6008BD6B
:103DD000B013002000080040AFF30080AFF3008074
:103DE00082B00190019B1B78012B12D1019B324ABA
:103DF00093420ED1314A314BDB6943F00403D36166
:103E00002E4A2E4B1B6943F0040313612B4B0022F7
:103E10001A61019B9B6800221A60019B9B6800222B
:103E20005A60019B9B6800229A62019B9B6800225A
:103E3000DA60019B9B684FF6FF72DA62019B9A6819
:103E4000019B9B689B6943F4807343F0010393617A
:103E5000019B5B681B78012B13D0022B16D0002B23
:103E600000D018E0019B5B685B78012B04D1019BBB
:103E70009B6803229A600EE0019B9B6801229A6076
:103E800009E0019B9B6801229A6004E0019B9B680A
:103E900002229A6000BF019B5B689B78012B04D1D2
:103EA000019B9B6813221A6203E0019B9B6811220D
:103EB0001A6202B0704700BFB01300200010024029
:103EC00082B00190019B9B6801221A6002B070478A
:103ED00082B00190019B184602B07047AFF300809A
:103EE00008B5202383F31188FCF79AFC08BD00BFB6
:103EF00008B5FCF7ADFC002383F3118808BD00BFB3
:103F000008B5FFF7EDFF08BDAFF30080AFF3008009
:103F100008B5FFF7EDFF08BDAFF30080AFF30080F9
:103F200000B583B001900198FFF7D2FF019B0022FA
:103F30001A60019B00225A60019B184603B05DF88D
:103F400004FB00BFAFF30080AFF30080AFF300804D
:103F500082B00190019B184602B07047AFF3008019
:103F600000B583B00190019B1B889BB21A461023B9
:103F7000013B194601238B40013B9A4202DB064874
:103F8000FCF75EFD019B1B889BB201339AB2019B3B
:103F90001A8003B05DF804FBE0AE0008AFF30080C8
:103FA00000B583B00190019B1B889BB2002B02D10E
:103FB0000A48FCF745FD019B1B889BB2013B9AB266
:103FC000019B1A80019B1B889BB2002B14BF01230D
:103FD0000023DBB2184603B05DF804FBE0AE000836
:103FE00000B583B001900091009B002B04D0019B91
:103FF00018460099FDF7FCFD03B05DF804FB00BF17
:1040000000B583B001900091009B002B04D0019B70
:1040100018460099FDF70CFE03B05DF804FB00BFE5
:1040200000B583B001900091019B083318460099B8
:10403000FFF7D6FF03B05DF804FB00BFAFF30080CD
:1040400000B583B001900091019B08331846009998
:10405000FFF7D6FF03B05DF804FB00BFAFF30080AD
:1040600010B584B001900091019B5B68002B02D1D8
:104070001448FCF7E5FC0098FFF772FF019B5C68B1
:1040800002AB184605F0BCF902AB204600991A466F
:1040900003F0A6FC03468DF80F300098FFF780FF71
:1040A000034683F00103DBB2002B05D0019B5B6864
:1040B00018460099FFF7B4FF9DF80F30184604B07A
:1040C00010BD00BFE0AE0008AFF30080AFF300808A
:1040D00000B585B001900091019B5B68002B02D177
:1040E0001E48FCF7ADFC009800F01AFC02AB184625
:1040F00005F086F9019B5A6802AB104600991A46F2
:1041000003F0C6FC03468DF80F30019B5A6802ABE2
:10411000104600991A4603F003FD0346002B05D014
:104120009DF80F30002B01D0012300E000238DF813
:104130000F30009800F004FC034683F00103DBB26B
:10414000002B05D0019B5B6818460099FFF778FFAC
:104150009DF80F30184605B05DF804FBE0AE00088E
:1041600000B583B001900198FFF7B2FE019B054AAC
:104170001A60019B00225A60019B184603B05DF84B
:1041800004FB00BFF8B10008AFF30080AFF300807C
:1041900000B583B00190019B074A1A600198FFF7B0
:1041A000D7FE0023002B02D0019805F081F9019B76
:1041B000184603B05DF804FBF8B10008AFF30080C7
:1041C00082B00190019B1B68184602B0704700BF87
:1041D00000B583B001900091009B002B0DD0019899
:1041E000FFF7EEFF034618460099102206F0D8FAB2
:1041F0000346002B01D1012300E00023184603B041
:104200005DF804FBAFF30080AFF30080AFF30080F4
:1042100000B583B001900091019B5B68002B02D137
:104220000C48FCF70DFC0098FFF7BAFE034683F03C
:104230000103DBB2002B07D0019B5B681846009995
:10424000FFF7EEFE002300E00123184603B05DF8FF
:1042500004FB00BFF0AE0008AFF30080AFF30080B6
:1042600000B583B001900091019B5B68002B02D1E7
:104270000C48FCF7E5FB009800F062FB034683F076
:104280000103DBB2002B07D0019B5B681846009945
:10429000FFF7D6FE002300E00123184603B05DF8C7
:1042A00004FB00BFF0AE0008AFF30080AFF3008066
:1042B00000B583B001900198FFF70AFE019B054A03
:1042C0001A60019B00225A60019B184603B05DF8FA
:1042D00004FB00BF08B20008AFF30080AFF300801A
:1042E00000B583B00190019B074A1A600198FFF75F
:1042F0002FFE0023002B02D0019805F0D9F8019B76
:10430000184603B05DF804FB08B20008AFF3008064
:1043100000B583B001900091019B5B68184600993D
:10432000FFF756FF0346184603B05DF804FB00BFD5
:1043300000B583B001900198FFF7CAFD019B0433DB
:104340001846FFF7EDFD019B184603B05DF804FB2E
:1043500000B583B00190019B1846FFF7E9FF019B70
:10436000184603B05DF804FBAFF30080AFF30080A4
:1043700000B583B00190019B1846FFF7F1FE019B49
:10438000064A1A60019B08331846019900F020F88C
:10439000019B184603B05DF804FB00BF38B200086B
:1043A00000B583B00190019B084A1A60019B184632
:1043B000FFF7EEFE0023002B02D0019805F078F8FD
:1043C000019B184603B05DF804FB00BF38B200083B
:1043D00082B001900091019B00221A60019B009A1B
:1043E0005A60019B184602B0704700BFAFF30080CF
:1043F00082B001900091009B1A68019B1A60019B9A
:10440000184602B0704700BFAFF30080AFF30080E2
:1044100082B00190019B1B68184602B0704700BF34
:1044200000B583B001900091019B1B68002B10D058
:104430002022009B9A4202D80748FCF701FB019B0F
:104440001968009B012202FA03F308461946FDF79A
:104450006FF903B05DF804FB00AF0008AFF3008014
:1044600000B583B00190019B1846FFF7D1FF0346CA
:10447000184603B05DF804FBAFF30080AFF3008093
:1044800000B583B001900091019B18460099FFF799
:10449000C7FF03B05DF804FBAFF30080AFF300800B
:1044A00000B583B00190019B0C331846FFF7D8FF8D
:1044B0000346002B14BF01230023DBB2184603B0D0
:1044C0005DF804FBAFF30080AFF30080AFF3008032
:1044D00000B583B001900091019B0C331846009900
:1044E000FFF7CEFF03B05DF804FB00BFAFF3008021
:1044F00000B583B00190019B1033184600F048F9D5
:104500000346184603B05DF804FB00BFAFF300801C
:1045100000B587B0039002910192039B10331846B7
:10452000029900F03DF90346002B0AD005AB18466E
:1045300004F066FF05AB01981946FFF759FF012308
:1045400000E00023184607B05DF804FBAFF30080DD
:1045500000B585B0039002910192039B9B681846B9
:10456000FFF79EFF0346002B0AD0039B103318462B
:10457000029900F045F90346002B01D0012300E029
:104580000023002B0AD0039B9A68039B93F82430E6
:1045900010461946FFF79CFF012300E00023184650
:1045A00005B05DF804FB00BFAFF30080AFF30080FF
:1045B00000B583B001900091FFF7A2FC019B10337E
:1045C0001846009900F0ECF80346002B03D0FFF7E3
:1045D0009FFC012302E0FFF79BFC0023184603B079
:1045E0005DF804FBAFF30080AFF30080AFF3008011
:1045F00000B587B0039002910192FFF781FC039B05
:1046000010331846029900F0CBF80346002B0CD06B
:10461000FFF77EFC05AB184604F0F2FE05AB0198EF
:104620001946FFF7E5FE012302E0FFF771FC0023C6
:10463000184607B05DF804FBAFF30080AFF30080CD
:1046400000B585B0039002910192FFF759FC039BDE
:1046500010331846029900F0D3F80346002B0CD013
:10466000039B9A68039B93F8243010461946FFF782
:104670002FFFFFF74DFC012302E0FFF749FC002369
:10468000184605B05DF804FBAFF30080AFF300807F
:1046900000B583B001900198FFF75AFC019B1846C2
:1046A00003B05DF804FB00BFAFF30080AFF3008000
:1046B00000B583B00190019B1846FFF7E9FF019B0D
:1046C000184603B05DF804FBAFF30080AFF3008041
:1046D00000B585B00390029101920093039B1846A8
:1046E000FFF7E6FD039B184A1A60039B00229A60BD
:1046F000039B009ADA60039B103318460299019AD3
:1047000000F0BEF8039BFF2283F82420039B28338C
:104710001846039900F0A4F8039B30331846039918
:1047200000F09EF8029B002B02D10848FCF788F9A4
:10473000019B002B02D10548FCF782F9039B184628
:1047400005B05DF804FB00BF48B2000800AF0008E8
:1047500000B583B00190019B0A4A1A60019B103397
:104760001846FFF7A5FF019B1846FFF7B9FD002388
:10477000002B02D0019804F09BFE019B184603B069
:104780005DF804FB48B20008AFF30080AFF300808F
:1047900082B00190019B5B68184602B0704700BF71
:1047A00082B001900091019B9B68002B23D0019B5C
:1047B0009B685A1E019B9A60019BDB681A68009BEC
:1047C0001A60019BDB681A1D019BDA60019BDA68A5
:1047D000019B1968019B5B689B000B449A422CBFAC
:1047E00001230023DBB2002B03D0019B1A68019B3D
:1047F000DA60012300E00023184602B0704700BFD2
:1048000082B001900091019B9A68019B5B689A427B
:1048100022D2019B9B685A1C019B9A60019B1B69D9
:10482000009A1A60019B1B691A1D019B1A61019B6A
:104830001A69019B1968019B5B689B000B449A42B3
:104840002CBF01230023DBB2002B03D0019B1A688D
:10485000019B1A61012300E00023184602B0704753
:1048600082B001900091019B00221A60019B009A86
:104870005A60019B184602B0704700BFAFF300803A
:1048800000B585B0039002910192039B18460299EE
:10489000019A00F005F8039B184605B05DF804FB8B
:1048A00000B585B00390029101920398FFF710FBC9
:1048B000039B029A1A60039B019A5A60039B002291
:1048C0009A60039B029ADA60039B029A1A61029B28
:1048D000002B02D10648FCF7B3F8019B002B02D154
:1048E0000348FCF7ADF8039B184605B05DF804FBE0
:1048F00010AF0008AFF30080AFF30080AFF300808B
:1049000082B00190019B00221A7000225A7002B0FE
:10491000704700BFAFF30080AFF30080AFF30080BB
:1049200000B583B00190FFF7EBFA0198FFF718FB91
:10493000FFF7EEFA03B05DF804FB00BFAFF30080B1
:1049400000B585B00190FFF7DBFA0198FFF728FB6F
:1049500003468DF80F30FFF7DBFA9DF80F3018464D
:1049600005B05DF804FB00BFAFF30080AFF300803B
:1049700000B585B0039002910192019B022B02D2F7
:104980000848FCF75DF8039B991C029B9A1C019B4D
:10499000023B084611461A46FBF702FC05B05DF8DB
:1049A00004FB00BF20AF0008AFF30080AFF300802E
:1049B00000B583B001900198FFF78AFAFFF7A0FADB
:1049C000019B184603B05DF804FB00BFAFF3008005
:1049D00000B583B00190FFF79BFA0198FFF7B8FA92
:1049E000019B184603B05DF804FB00BFAFF30080E5
:1049F00082B00190019B5B68184602B0704700BF0F
:104A000000B583B00190019B1846FDF7C1F803463D
:104A1000184603B05DF804FBAFF30080AFF30080ED
:104A200000B585B0039002910192039B184602994C
:104A3000019AFDF785F805B05DF804FBAFF300803F
:104A400082B00190019B1B68044A82FB03129214FE
:104A5000DB17D31A184602B0704700BF83DE1B4332
:104A600082B00190019B00221A60019B184602B09F
:104A7000704700BFAFF30080AFF30080AFF300805A
:104A800082B001900091009B1A68019B1A60019B03
:104A9000184602B0704700BFAFF30080AFF300804C
:104AA00000B583B001900091009B4FF47A7202FB35
:104AB00003F30198194601F043FC019803B05DF837
:104AC00004FB00BFAFF30080AFF30080AFF30080C2
:104AD00082B001900091019B1A68009B1B689A426A
:104AE000ACBF01230023DBB2184602B0704700BF01
:104AF00000B585B0039002910192029B1A68019B58
:104B00001B6813440398194601F01AFC039805B07A
:104B10005DF804FBAFF30080AFF30080AFF30080DB
:104B200000B585B0039002910192029B1A68019B27
:104B30001B68D31A0398194601F002FC039805B0CC
:104B40005DF804FBAFF30080AFF30080AFF30080AB
:104B500082B00190019B00221A7000225A70019BC2
:104B6000184602B0704700BFAFF30080AFF300807B
:104B700082B00190019B023B184602B0704700BF13
:104B800082B00190019B5B68184602B0704700BF7D
:104B900000B583B001900091019B5B68002B02D0AF
:104BA0000448FBF74DFF019B009A5A6003B05DF883
:104BB00004FB00BF30AF0008AFF30080AFF300800C
:104BC00000B583B001900091019B5B68002B02D17E
:104BD0000A48FBF735FF019B5B68184600F0C8F9EF
:104BE0000246009B1A60009B1B68002B14BF012328
:104BF0000023DBB2184603B05DF804FB30AF0008B9
:104C000000B585B001900091FFF77AF901980099FD
:104C1000FFF7D6FF03468DF80F30FFF779F99DF8BF
:104C20000F30184605B05DF804FB00BFAFF30080FD
:104C300010B584B001900091019B5B68002B02D1FC
:104C40000948FBF7FDFE019B5C6803AB184604F0C6
:104C5000D7FB03AB204600991A4602F061FF0346DA
:104C6000184604B010BD00BF30AF0008AFF300809D
:104C700082B00190019B5B68184602B0704700BF8C
:104C800000B583B001900091019B5B68002B02D0BE
:104C90000448FBF7D5FE019B009A5A6003B05DF80B
:104CA00004FB00BF30AF0008AFF30080AFF300801B
:104CB00000B589B005900491039202930A9B00937A
:104CC00005980499039A029BFCF732FA0790079B18
:104CD000002B02D0079B0B9A9A61079B184609B0DC
:104CE0005DF804FBAFF30080AFF30080AFF300800A
:104CF000014B9B691846704748120020AFF30080B3
:104D000000B583B00190019B1B68002B21DD019B46
:104D10001B68124A934210DC019B1B681A464FF431
:104D20007A7303FB02F3013B0D4AA2FB03239B0CA6
:104D300001331846FCF734FA0DE00198FFF780FEC6
:104D400002464FF47A7303FB02F31846FCF728FA85
:104D500001E0FCF765FA03B05DF804FB3F420F0089
:104D600083DE1B43AFF30080AFF30080AFF300801E
:104D700000B587B00590049103920293089B0093BD
:104D8000099B019305980499039A029BFFF790FFF2
:104D90000346184607B05DF804FB00BFAFF3008080
:104DA00008B5FFF7A5FF0346184608BDAFF300801E
:104DB00000B583B001900198FFF7A2FF03B05DF842
:104DC00004FB00BFAFF30080AFF30080AFF30080BF
:104DD00082B001900091019B009A1A6002B0704766
:104DE00000B583B001900091202383F31188FBF775
:104DF00017FD01980099FFF713FBFBF729FD00232E
:104E000083F3118803B05DF804FB00BFAFF30080AB
:104E100000B583B001900091019B18460099FFF7FF
:104E2000D7FF03B05DF804FBAFF30080AFF3008061
:104E300000B583B001900091019B18460099FFF7DF
:104E4000CFFF03B05DF804FBAFF30080AFF3008049
:104E500082B00190019B0433184602B0704700BF36
:104E600082B00190019B0833184602B0704700BF22
:104E700010B582B001900B468DF80330019B03F111
:104E80000C049DF80330002B03D0FFF789FF034685
:104E900000E0002320461946FFF7BAFF02B010BD1C
:104EA00000B583B00190019B0C3318461F21FFF71A
:104EB000BFFF03B05DF804FBAFF30080AFF30080E9
:104EC00000B583B00190019B08331846FFF790FDB1
:104ED00003461846FFF74CFE0346184603B05DF83C
:104EE00004FB00BFAFF30080AFF30080AFF300809E
:104EF00082B00190019B5B6A184602B0704700BF08
:104F000082B00190019B5B69002B14BF0123002339
:104F1000DBB2184602B07047AFF30080AFF30080F9
:104F200000B583B00190019B1C33184601F018FABC
:104F3000034683F00103DBB2184603B05DF804FBBF
:104F400000B585B0039002910192029B0433039A4D
:104F5000104601991A46FFF7CBFD039805B05DF89E
:104F600004FB00BFAFF30080AFF30080AFF300801D
:104F700010B582B00190019B08331846FFF740FD41
:104F80000446002C04D02046FFF7BAFC234600E07C
:104F90000023184602B010BDAFF30080AFF30080CD
:104FA00000B587B0039002910192FEF7A9FF04AB10
:104FB00018460299019AFFF7C3FF04AB0593FEF769
:104FC000A7FF03980599FFF75BFD039807B05DF80D
:104FD00004FB00BFAFF30080AFF30080AFF30080AD
:104FE00000B585B00190009103AB184604F008FAB3
:104FF000019A03AB104600991A46FFF7D1FF0198BA
:1050000005B05DF804FB00BFAFF30080AFF3008094
:1050100000B585B0039002910192039B08331846B6
:105020000299019AFFF7FCFC05B05DF804FB00BF94
:1050300000B583B00190019B1846FCF7E9F903B075
:105040005DF804FBAFF30080AFF30080AFF30080A6
:1050500000B583B00190019B1846FCF709FA03B034
:105060005DF804FBAFF30080AFF30080AFF3008086
:1050700000B583B00190FCF7F3FA03B05DF804FBD0
:1050800000B583B001900B468DF803300198FEF710
:105090001FFF9DF80330002B02D00198FFF7C8FFD7
:1050A000019B184603B05DF804FB00BFAFF300801E
:1050B00000B583B00190019B04331846FFF7B8FF99
:1050C00003B05DF804FB00BFAFF30080AFF30080D6
:1050D00000B583B00190019B04331846FFF7B8FF79
:1050E00003B05DF804FB00BFAFF30080AFF30080B6
:1050F00000B583B00190019B04331846FFF7B8FF59
:1051000003B05DF804FB00BFAFF30080AFF3008095
:1051100000B583B001900B468DF803300198FEF77F
:10512000D7FE019B1A1D9DF8033010461946FFF764
:10513000A7FF019B184603B05DF804FBAFF30080A6
:1051400000B583B00190019B00221A60019B0433DB
:105150001846FFF7ADFF03B05DF804FBAFF3008026
:1051600000B583B00190019B1B685A1C019B1A601B
:10517000019B1B68012B0CBF01230023DBB2002B1A
:1051800004D0019B04331846FFF7A2FF03B05DF87B
:1051900004FB00BFAFF30080AFF30080AFF30080EB
:1051A00000B583B00190019B1B68002B02D10C4815
:1051B000FBF746FC019B1B685A1E019B1A60019B72
:1051C0001B68002B0CBF01230023DBB2002B04D093
:1051D000019B04331846FFF78BFF03B05DF804FB17
:1051E00030AF0008AFF30080AFF30080AFF3008072
:1051F00000B583B00190FEF783FE0198FFF7B0FF82
:10520000FEF786FE03B05DF804FB00BFAFF300803D
:1052100000B583B00190FEF773FE0198FFF7C0FF61
:10522000FEF776FE03B05DF804FB00BFAFF300802D
:1052300000B583B001900B468DF803300198FEF75E
:1052400047FE019B00221A60019B1A1D9DF8033046
:1052500010461946FFF75CFF019B184603B05DF846
:1052600004FB00BFAFF30080AFF30080AFF300801A
:1052700082B00190019B93F85832184602B07047F3
:1052800000B585B00390029101920093029B002B20
:1052900002D11148FBF7D4FB019B002B02D10E4831
:1052A000FBF7CEFB039B10331846FFF749FF039B28
:1052B000029A9A65039B019ADA65039B009A5A66E3
:1052C000039B03F10802039B50331046194601F07B
:1052D00057F805B05DF804FB30AF0008AFF300806D
:1052E00000B587B00390039B986D039BD96D039B1A
:1052F0005A6E00230093204B0193204BFFF738FD9B
:105300000246039B1A66039B1B6E002B02D11C48AE
:10531000FBF796FBFEF7F4FD0DE0FEF7F9FD05AB9C
:1053200018464FF4FA71FFF7BBFB05AB1846FFF7C1
:105330003FFDFEF7E5FD039B28331846FFF7E0FD30
:10534000034683F00103DBB2002B0AD1039B283311
:105350001846FFF7E5FD034683F00103DBB2002B9F
:1053600001D0012300E00023002BD6D1FEF7D0FDB1
:1053700007B05DF804FB00BF40AF000821630008E0
:1053800030AF0008AFF30080AFF30080AFF30080D0
:1053900010B588B0019005AB1846FFF709FB019BDB
:1053A00093F8583283F00103DBB2002B05D0019B48
:1053B000012283F85822012401E0002400BF05AB3C
:1053C0001846FFF705FB012C42D100BF019B0433B7
:1053D00004AA1046194600F0E3FF0BE004AB1846A0
:1053E00001F026F803461846FFF75AFD04AB1846AD
:1053F00001F006F8019B043306AA1046194600F096
:10540000DFFF04AA06AB1046194600F0E9FF034689
:10541000002BE3D107AB18464FF4FA71FFF740FBBE
:1054200007AB1846FFF7C4FC03AB1846FFF7C0FAFA
:10543000019BD3F85C32002B01D1002400E0012451
:1054400003AB1846FFF7C4FA012C01D100BFBDE73A
:1054500008B010BDAFF30080AFF30080AFF3008061
:1054600000B583B001900091FEF74AFD019B1A1D23
:10547000009B14331046194600F0F2FF019BD3F84D
:105480005C325A1C019BC3F85C22FEF741FD03B05D
:105490005DF804FBAFF30080AFF30080AFF3008052
:1054A00000B583B001900091019B03F10C02009BB9
:1054B00038331046194600F0FBFF03B05DF804FBDB
:1054C00030B589B00390029101920093039B103391
:1054D0001846FFF78DFE039801990C9A00F0C8F961
:1054E0000790079B002B01D100245BE0029B18462C
:1054F0000799FFF74DFB07980299009A02F0D8FB35
:10550000039B10331846FFF783FE039B03F1280229
:10551000079B9A4245D005AB1846FFF749FA039B13
:1055200084331846FFF72CFB0346002B0CBF0123E6
:105530000023DBB2002B02D00124002500E001256E
:1055400005AB1846FFF744FA012D00D02AE000BF52
:10555000039B03F1840206AB1046194600F070FF6E
:105560000346002B00D11CE0069B212283F821205A
:10557000069B9C1C0798FEF723FE0346204619460F
:10558000102205F05DF9069C0798FFF799FC034689
:105590009BB26382039B8433069A18461146FFF739
:1055A00047FB01242346184609B030BDAFF3008005
:1055B00000B587B00390029101920093039B1033D2
:1055C0001846FFF715FE03980199089A00F050F964
:1055D0000590059B002B01D100230FE0029B18468C
:1055E0000599FFF7D5FA05980299009A02F080FB19
:1055F000039B10331846FFF70BFE0123184607B034
:105600005DF804FBAFF30080AFF30080AFF30080E0
:1056100030B58BB00390029101920093039B10333D
:105620001846FFF7E5FD039801990F9A00F020F95D
:105630000990099B002B01D100247FE00998009973
:105640000E9AFFF7E5FC029B18460999FFF718FB35
:10565000099802990E9A02F06BFB039B10331846CF
:10566000FFF7D6FD039B03F12802099B9A4264D001
:10567000039B0C3307AA1046194600F029FF4CE0A3
:1056800005AB1846FFF794F9039B84331846FFF7E0
:1056900077FA0346002B0CBF01230023DBB2002B5B
:1056A00002D00124002500E0012505AB1846FFF7D4
:1056B0008FF9012D00D041E000BF039B03F184026C
:1056C00006AB1046194600F0BBFE0346002B20D067
:1056D000069B222283F82120069B9D1C0998FEF739
:1056E0006FFD034628461946102205F0A9F8069DCD
:1056F0000998FFF7E5FB03469BB26B82069B0E9A67
:1057000092B29A82039B8433069A18461146FFF799
:105710008FFA07AB184600F00BFF039B0C3308AA67
:105720001046194600F0E4FE07AA08AB10461946D9
:1057300000F0EEFE0346002BA2D1012423461846BA
:105740000BB030BDAFF30080AFF30080AFF300804B
:1057500000B587B00390029101920093039B103330
:105760001846FFF745FD0398019900F061F8059090
:10577000059B002B02D10E48FBF762F905980099B2
:10578000089AFFF745FC029B18460599FFF778FA3F
:1057900005980299089A02F0EBFA039B1033184619
:1057A000FFF736FD0123184607B05DF804FB00BF84
:1057B00030AF0008AFF30080AFF30080AFF300809C
:1057C00000B583B001900091FEF79AFB019BD3F8DE
:1057D0005C32002B02D11348FBF732F9019B0433F2
:1057E0001846009900F0BCFE034683F00103DBB2CB
:1057F000002B02D00B48FBF723F9019BD3F85C3256
:105800005A1E019BC3F85C22019B1A1D009B143396
:105810001046194600F0BCFEFEF77AFB03B05DF8B7
:1058200004FB00BF30AF0008AFF30080AFF300808F
:1058300000B585B001900091019B10331846FFF729
:10584000D7FC019B083318460749009A00F0D0FEA8
:105850000390019B10331846FFF7DAFC039B1846B0
:1058600005B05DF804FB00BFD1410008AFF3008034
:1058700010B586B0039002910192039B1033184635
:10588000FFF7B6FC03980299FFF7D2FF0590059B3E
:10589000002B16D1302003F0DBFD04462046029990
:1058A000019A002302F0BCFA0594059B002B08D056
:1058B000039B03F10802059B28331046194600F0AC
:1058C0005FFD039B10331846FFF7A2FC059B1846AB
:1058D00006B010BDAFF30080AFF30080AFF30080DF
:1058E00030B58FB00190FEF70BFB019B6833184673
:1058F0000121FFF7BDFAFEF70BFB019B03F16805E1
:10590000019B03F18404019B28331846FEF758FCE1
:105910000346284621461A467F4B00F079FE019B3C
:1059200003F16805019B03F19404019B2833184699
:10593000FEF746FC0246019BF4332846214600F060
:105940007FFE019B03F1840204AB1046194600F070
:1059500077FD0346002B29D0049B184600F088FEF3
:10596000049B112283F82120049B9A1C019B1B6835
:1059700010461946072204F063FFFEF7C1FA049CA3
:105980000198FFF775FC0346002B01D0012200E0CF
:105990000022A37A62F30003A372FEF7B9FA019B17
:1059A0008433049A18461146FFF742F9019B03F12C
:1059B000680405AB18462121FFF772F805AB2046B5
:1059C000194601F0E5FB0346002B00F0A78003AB6E
:1059D0001846FFF745F890E0049B93F82130123BFE
:1059E000112B00F2818001A252F823F0895A00089D
:1059F000B95A0008E95A0008E95A0008E95A0008AB
:105A0000E95A0008E95A0008E95A0008E95A00086A
:105A1000E95A0008E95A0008E95A0008E95A00085A
:105A2000E95A0008E95A0008355A0008515A000896
:105A30006D5A0008049B0198194600F051FA019B29
:105A400003F19402049B1046194600F031FE54E025
:105A5000049B0198194600F0D3FA019B03F19402CC
:105A6000049B1046194600F023FE46E0049B019873
:105A7000194600F06DFB019B03F19402049B104654
:105A8000194600F015FE38E0019B1A68049B0233AA
:105A900010461946072204F083FE0346002B02D16C
:105AA0000198FFF775FC019B03F19402049B1046DB
:105AB000194600F0FDFD20E0019B1A68049B0233AB
:105AC00010461946072204F06BFE0346002B02D154
:105AD000019803F075FC019B03F19402049B1046AE
